{
  "_format": "hh-sol-artifact-1",
  "contractName": "ATNFT",
  "sourceName": "contracts/ERC721.sol",
  "abi": [
    {
      "inputs": [],
      "stateMutability": "nonpayable",
      "type": "constructor"
    },
    {
      "anonymous": false,
      "inputs": [
        {
          "indexed": true,
          "internalType": "address",
          "name": "owner",
          "type": "address"
        },
        {
          "indexed": true,
          "internalType": "address",
          "name": "approved",
          "type": "address"
        },
        {
          "indexed": true,
          "internalType": "uint256",
          "name": "tokenId",
          "type": "uint256"
        }
      ],
      "name": "Approval",
      "type": "event"
    },
    {
      "anonymous": false,
      "inputs": [
        {
          "indexed": true,
          "internalType": "address",
          "name": "owner",
          "type": "address"
        },
        {
          "indexed": true,
          "internalType": "address",
          "name": "operator",
          "type": "address"
        },
        {
          "indexed": false,
          "internalType": "bool",
          "name": "approved",
          "type": "bool"
        }
      ],
      "name": "ApprovalForAll",
      "type": "event"
    },
    {
      "anonymous": false,
      "inputs": [
        {
          "indexed": true,
          "internalType": "address",
          "name": "previousOwner",
          "type": "address"
        },
        {
          "indexed": true,
          "internalType": "address",
          "name": "newOwner",
          "type": "address"
        }
      ],
      "name": "OwnershipTransferred",
      "type": "event"
    },
    {
      "anonymous": false,
      "inputs": [
        {
          "indexed": true,
          "internalType": "address",
          "name": "from",
          "type": "address"
        },
        {
          "indexed": true,
          "internalType": "address",
          "name": "to",
          "type": "address"
        },
        {
          "indexed": true,
          "internalType": "uint256",
          "name": "tokenId",
          "type": "uint256"
        }
      ],
      "name": "Transfer",
      "type": "event"
    },
    {
      "inputs": [
        {
          "internalType": "address",
          "name": "to",
          "type": "address"
        },
        {
          "internalType": "uint256",
          "name": "tokenId",
          "type": "uint256"
        }
      ],
      "name": "approve",
      "outputs": [],
      "stateMutability": "nonpayable",
      "type": "function"
    },
    {
      "inputs": [
        {
          "internalType": "address",
          "name": "owner",
          "type": "address"
        }
      ],
      "name": "balanceOf",
      "outputs": [
        {
          "internalType": "uint256",
          "name": "",
          "type": "uint256"
        }
      ],
      "stateMutability": "view",
      "type": "function"
    },
    {
      "inputs": [
        {
          "internalType": "uint256",
          "name": "tokenId",
          "type": "uint256"
        }
      ],
      "name": "getApproved",
      "outputs": [
        {
          "internalType": "address",
          "name": "",
          "type": "address"
        }
      ],
      "stateMutability": "view",
      "type": "function"
    },
    {
      "inputs": [
        {
          "internalType": "address",
          "name": "owner",
          "type": "address"
        },
        {
          "internalType": "address",
          "name": "operator",
          "type": "address"
        }
      ],
      "name": "isApprovedForAll",
      "outputs": [
        {
          "internalType": "bool",
          "name": "",
          "type": "bool"
        }
      ],
      "stateMutability": "view",
      "type": "function"
    },
    {
      "inputs": [
        {
          "internalType": "string",
          "name": "_tokenURI",
          "type": "string"
        }
      ],
      "name": "mint",
      "outputs": [
        {
          "internalType": "uint256",
          "name": "",
          "type": "uint256"
        }
      ],
      "stateMutability": "payable",
      "type": "function"
    },
    {
      "inputs": [],
      "name": "name",
      "outputs": [
        {
          "internalType": "string",
          "name": "",
          "type": "string"
        }
      ],
      "stateMutability": "view",
      "type": "function"
    },
    {
      "inputs": [],
      "name": "owner",
      "outputs": [
        {
          "internalType": "address",
          "name": "",
          "type": "address"
        }
      ],
      "stateMutability": "view",
      "type": "function"
    },
    {
      "inputs": [
        {
          "internalType": "uint256",
          "name": "tokenId",
          "type": "uint256"
        }
      ],
      "name": "ownerOf",
      "outputs": [
        {
          "internalType": "address",
          "name": "",
          "type": "address"
        }
      ],
      "stateMutability": "view",
      "type": "function"
    },
    {
      "inputs": [],
      "name": "renounceOwnership",
      "outputs": [],
      "stateMutability": "nonpayable",
      "type": "function"
    },
    {
      "inputs": [
        {
          "internalType": "address",
          "name": "from",
          "type": "address"
        },
        {
          "internalType": "address",
          "name": "to",
          "type": "address"
        },
        {
          "internalType": "uint256",
          "name": "tokenId",
          "type": "uint256"
        }
      ],
      "name": "safeTransferFrom",
      "outputs": [],
      "stateMutability": "nonpayable",
      "type": "function"
    },
    {
      "inputs": [
        {
          "internalType": "address",
          "name": "from",
          "type": "address"
        },
        {
          "internalType": "address",
          "name": "to",
          "type": "address"
        },
        {
          "internalType": "uint256",
          "name": "tokenId",
          "type": "uint256"
        },
        {
          "internalType": "bytes",
          "name": "data",
          "type": "bytes"
        }
      ],
      "name": "safeTransferFrom",
      "outputs": [],
      "stateMutability": "nonpayable",
      "type": "function"
    },
    {
      "inputs": [
        {
          "internalType": "address",
          "name": "operator",
          "type": "address"
        },
        {
          "internalType": "bool",
          "name": "approved",
          "type": "bool"
        }
      ],
      "name": "setApprovalForAll",
      "outputs": [],
      "stateMutability": "nonpayable",
      "type": "function"
    },
    {
      "inputs": [
        {
          "internalType": "bytes4",
          "name": "interfaceId",
          "type": "bytes4"
        }
      ],
      "name": "supportsInterface",
      "outputs": [
        {
          "internalType": "bool",
          "name": "",
          "type": "bool"
        }
      ],
      "stateMutability": "view",
      "type": "function"
    },
    {
      "inputs": [],
      "name": "symbol",
      "outputs": [
        {
          "internalType": "string",
          "name": "",
          "type": "string"
        }
      ],
      "stateMutability": "view",
      "type": "function"
    },
    {
      "inputs": [
        {
          "internalType": "uint256",
          "name": "tokenId",
          "type": "uint256"
        }
      ],
      "name": "tokenURI",
      "outputs": [
        {
          "internalType": "string",
          "name": "",
          "type": "string"
        }
      ],
      "stateMutability": "view",
      "type": "function"
    },
    {
      "inputs": [
        {
          "internalType": "address",
          "name": "from",
          "type": "address"
        },
        {
          "internalType": "address",
          "name": "to",
          "type": "address"
        },
        {
          "internalType": "uint256",
          "name": "tokenId",
          "type": "uint256"
        }
      ],
      "name": "transferFrom",
      "outputs": [],
      "stateMutability": "nonpayable",
      "type": "function"
    },
    {
      "inputs": [
        {
          "internalType": "address",
          "name": "newOwner",
          "type": "address"
        }
      ],
      "name": "transferOwnership",
      "outputs": [],
      "stateMutability": "nonpayable",
      "type": "function"
    }
  ],
  "bytecode": "0x60806040523480156200001157600080fd5b506040518060400160405280600c81526020017f4179757368205468616b757200000000000000000000000000000000000000008152506040518060400160405280600581526020017f41544e465400000000000000000000000000000000000000000000000000000081525081600090816200008f919062000412565b508060019081620000a1919062000412565b505050620000c4620000b8620000ca60201b60201c565b620000d260201b60201c565b620004f9565b600033905090565b6000600760009054906101000a900473ffffffffffffffffffffffffffffffffffffffff16905081600760006101000a81548173ffffffffffffffffffffffffffffffffffffffff021916908373ffffffffffffffffffffffffffffffffffffffff1602179055508173ffffffffffffffffffffffffffffffffffffffff168173ffffffffffffffffffffffffffffffffffffffff167f8be0079c531659141344cd1fd0a4f28419497f9722a3daafe3b4186f6b6457e060405160405180910390a35050565b600081519050919050565b7f4e487b7100000000000000000000000000000000000000000000000000000000600052604160045260246000fd5b7f4e487b7100000000000000000000000000000000000000000000000000000000600052602260045260246000fd5b600060028204905060018216806200021a57607f821691505b60208210810362000230576200022f620001d2565b5b50919050565b60008190508160005260206000209050919050565b60006020601f8301049050919050565b600082821b905092915050565b6000600883026200029a7fffffffffffffffffffffffffffffffffffffffffffffffffffffffffffffffff826200025b565b620002a686836200025b565b95508019841693508086168417925050509392505050565b6000819050919050565b6000819050919050565b6000620002f3620002ed620002e784620002be565b620002c8565b620002be565b9050919050565b6000819050919050565b6200030f83620002d2565b620003276200031e82620002fa565b84845462000268565b825550505050565b600090565b6200033e6200032f565b6200034b81848462000304565b505050565b5b8181101562000373576200036760008262000334565b60018101905062000351565b5050565b601f821115620003c2576200038c8162000236565b62000397846200024b565b81016020851015620003a7578190505b620003bf620003b6856200024b565b83018262000350565b50505b505050565b600082821c905092915050565b6000620003e760001984600802620003c7565b1980831691505092915050565b6000620004028383620003d4565b9150826002028217905092915050565b6200041d8262000198565b67ffffffffffffffff811115620004395762000438620001a3565b5b62000445825462000201565b6200045282828562000377565b600060209050601f8311600181146200048a576000841562000475578287015190505b620004818582620003f4565b865550620004f1565b601f1984166200049a8662000236565b60005b82811015620004c4578489015182556001820191506020850194506020810190506200049d565b86831015620004e45784890151620004e0601f891682620003d4565b8355505b6001600288020188555050505b505050505050565b612f0480620005096000396000f3fe6080604052600436106100fe5760003560e01c8063715018a611610095578063b88d4fde11610064578063b88d4fde14610333578063c87b56dd1461035c578063d85d3d2714610399578063e985e9c5146103c9578063f2fde38b14610406576100fe565b8063715018a61461029d5780638da5cb5b146102b457806395d89b41146102df578063a22cb4651461030a576100fe565b806323b872dd116100d157806323b872dd146101d157806342842e0e146101fa5780636352211e1461022357806370a0823114610260576100fe565b806301ffc9a71461010357806306fdde0314610140578063081812fc1461016b578063095ea7b3146101a8575b600080fd5b34801561010f57600080fd5b5061012a60048036038101906101259190611b2c565b61042f565b6040516101379190611b74565b60405180910390f35b34801561014c57600080fd5b50610155610511565b6040516101629190611c1f565b60405180910390f35b34801561017757600080fd5b50610192600480360381019061018d9190611c77565b6105a3565b60405161019f9190611ce5565b60405180910390f35b3480156101b457600080fd5b506101cf60048036038101906101ca9190611d2c565b6105e9565b005b3480156101dd57600080fd5b506101f860048036038101906101f39190611d6c565b610700565b005b34801561020657600080fd5b50610221600480360381019061021c9190611d6c565b610760565b005b34801561022f57600080fd5b5061024a60048036038101906102459190611c77565b610780565b6040516102579190611ce5565b60405180910390f35b34801561026c57600080fd5b5061028760048036038101906102829190611dbf565b610831565b6040516102949190611dfb565b60405180910390f35b3480156102a957600080fd5b506102b26108e8565b005b3480156102c057600080fd5b506102c96108fc565b6040516102d69190611ce5565b60405180910390f35b3480156102eb57600080fd5b506102f4610926565b6040516103019190611c1f565b60405180910390f35b34801561031657600080fd5b50610331600480360381019061032c9190611e42565b6109b8565b005b34801561033f57600080fd5b5061035a60048036038101906103559190611fb7565b6109ce565b005b34801561036857600080fd5b50610383600480360381019061037e9190611c77565b610a30565b6040516103909190611c1f565b60405180910390f35b6103b360048036038101906103ae91906120db565b610b42565b6040516103c09190611dfb565b60405180910390f35b3480156103d557600080fd5b506103f060048036038101906103eb9190612124565b610bc3565b6040516103fd9190611b74565b60405180910390f35b34801561041257600080fd5b5061042d60048036038101906104289190611dbf565b610c57565b005b60007f80ac58cd000000000000000000000000000000000000000000000000000000007bffffffffffffffffffffffffffffffffffffffffffffffffffffffff1916827bffffffffffffffffffffffffffffffffffffffffffffffffffffffff191614806104fa57507f5b5e139f000000000000000000000000000000000000000000000000000000007bffffffffffffffffffffffffffffffffffffffffffffffffffffffff1916827bffffffffffffffffffffffffffffffffffffffffffffffffffffffff1916145b8061050a575061050982610cda565b5b9050919050565b60606000805461052090612193565b80601f016020809104026020016040519081016040528092919081815260200182805461054c90612193565b80156105995780601f1061056e57610100808354040283529160200191610599565b820191906000526020600020905b81548152906001019060200180831161057c57829003601f168201915b5050505050905090565b60006105ae82610d44565b6004600083815260200190815260200160002060009054906101000a900473ffffffffffffffffffffffffffffffffffffffff169050919050565b60006105f482610780565b90508073ffffffffffffffffffffffffffffffffffffffff168373ffffffffffffffffffffffffffffffffffffffff1603610664576040517f08c379a000000000000000000000000000000000000000000000000000000000815260040161065b90612236565b60405180910390fd5b8073ffffffffffffffffffffffffffffffffffffffff16610683610d8f565b73ffffffffffffffffffffffffffffffffffffffff1614806106b257506106b1816106ac610d8f565b610bc3565b5b6106f1576040517f08c379a00000000000000000000000000000000000000000000000000000000081526004016106e8906122c8565b60405180910390fd5b6106fb8383610d97565b505050565b61071161070b610d8f565b82610e50565b610750576040517f08c379a00000000000000000000000000000000000000000000000000000000081526004016107479061235a565b60405180910390fd5b61075b838383610ee5565b505050565b61077b838383604051806020016040528060008152506109ce565b505050565b6000806002600084815260200190815260200160002060009054906101000a900473ffffffffffffffffffffffffffffffffffffffff169050600073ffffffffffffffffffffffffffffffffffffffff168173ffffffffffffffffffffffffffffffffffffffff1603610828576040517f08c379a000000000000000000000000000000000000000000000000000000000815260040161081f906123c6565b60405180910390fd5b80915050919050565b60008073ffffffffffffffffffffffffffffffffffffffff168273ffffffffffffffffffffffffffffffffffffffff16036108a1576040517f08c379a000000000000000000000000000000000000000000000000000000000815260040161089890612458565b60405180910390fd5b600360008373ffffffffffffffffffffffffffffffffffffffff1673ffffffffffffffffffffffffffffffffffffffff168152602001908152602001600020549050919050565b6108f061114b565b6108fa60006111c9565b565b6000600760009054906101000a900473ffffffffffffffffffffffffffffffffffffffff16905090565b60606001805461093590612193565b80601f016020809104026020016040519081016040528092919081815260200182805461096190612193565b80156109ae5780601f10610983576101008083540402835291602001916109ae565b820191906000526020600020905b81548152906001019060200180831161099157829003601f168201915b5050505050905090565b6109ca6109c3610d8f565b838361128f565b5050565b6109df6109d9610d8f565b83610e50565b610a1e576040517f08c379a0000000000000000000000000000000000000000000000000000000008152600401610a159061235a565b60405180910390fd5b610a2a848484846113fb565b50505050565b6060610a3b82610d44565b6000600660008481526020019081526020016000208054610a5b90612193565b80601f0160208091040260200160405190810160405280929190818152602001828054610a8790612193565b8015610ad45780601f10610aa957610100808354040283529160200191610ad4565b820191906000526020600020905b815481529060010190602001808311610ab757829003601f168201915b505050505090506000610ae5611457565b90506000815103610afa578192505050610b3d565b600082511115610b2f578082604051602001610b179291906124b4565b60405160208183030381529060405292505050610b3d565b610b388461146e565b925050505b919050565b60006706f05b59d3b200003411610b8e576040517f08c379a0000000000000000000000000000000000000000000000000000000008152600401610b8590612524565b60405180910390fd5b610b9860086114d6565b6000610ba460086114ec565b9050610bb033826114fa565b610bba81846116d3565b80915050919050565b6000600560008473ffffffffffffffffffffffffffffffffffffffff1673ffffffffffffffffffffffffffffffffffffffff16815260200190815260200160002060008373ffffffffffffffffffffffffffffffffffffffff1673ffffffffffffffffffffffffffffffffffffffff16815260200190815260200160002060009054906101000a900460ff16905092915050565b610c5f61114b565b600073ffffffffffffffffffffffffffffffffffffffff168173ffffffffffffffffffffffffffffffffffffffff1603610cce576040517f08c379a0000000000000000000000000000000000000000000000000000000008152600401610cc5906125b6565b60405180910390fd5b610cd7816111c9565b50565b60007f01ffc9a7000000000000000000000000000000000000000000000000000000007bffffffffffffffffffffffffffffffffffffffffffffffffffffffff1916827bffffffffffffffffffffffffffffffffffffffffffffffffffffffff1916149050919050565b610d4d81611740565b610d8c576040517f08c379a0000000000000000000000000000000000000000000000000000000008152600401610d83906123c6565b60405180910390fd5b50565b600033905090565b816004600083815260200190815260200160002060006101000a81548173ffffffffffffffffffffffffffffffffffffffff021916908373ffffffffffffffffffffffffffffffffffffffff160217905550808273ffffffffffffffffffffffffffffffffffffffff16610e0a83610780565b73ffffffffffffffffffffffffffffffffffffffff167f8c5be1e5ebec7d5bd14f71427d1e84f3dd0314c0f7b2291e5b200ac8c7c3b92560405160405180910390a45050565b600080610e5c83610780565b90508073ffffffffffffffffffffffffffffffffffffffff168473ffffffffffffffffffffffffffffffffffffffff161480610e9e5750610e9d8185610bc3565b5b80610edc57508373ffffffffffffffffffffffffffffffffffffffff16610ec4846105a3565b73ffffffffffffffffffffffffffffffffffffffff16145b91505092915050565b8273ffffffffffffffffffffffffffffffffffffffff16610f0582610780565b73ffffffffffffffffffffffffffffffffffffffff1614610f5b576040517f08c379a0000000000000000000000000000000000000000000000000000000008152600401610f5290612648565b60405180910390fd5b600073ffffffffffffffffffffffffffffffffffffffff168273ffffffffffffffffffffffffffffffffffffffff1603610fca576040517f08c379a0000000000000000000000000000000000000000000000000000000008152600401610fc1906126da565b60405180910390fd5b610fd58383836117ac565b610fe0600082610d97565b6001600360008573ffffffffffffffffffffffffffffffffffffffff1673ffffffffffffffffffffffffffffffffffffffff16815260200190815260200160002060008282546110309190612729565b925050819055506001600360008473ffffffffffffffffffffffffffffffffffffffff1673ffffffffffffffffffffffffffffffffffffffff1681526020019081526020016000206000828254611087919061275d565b92505081905550816002600083815260200190815260200160002060006101000a81548173ffffffffffffffffffffffffffffffffffffffff021916908373ffffffffffffffffffffffffffffffffffffffff160217905550808273ffffffffffffffffffffffffffffffffffffffff168473ffffffffffffffffffffffffffffffffffffffff167fddf252ad1be2c89b69c2b068fc378daa952ba7f163c4a11628f55a4df523b3ef60405160405180910390a46111468383836117b1565b505050565b611153610d8f565b73ffffffffffffffffffffffffffffffffffffffff166111716108fc565b73ffffffffffffffffffffffffffffffffffffffff16146111c7576040517f08c379a00000000000000000000000000000000000000000000000000000000081526004016111be906127dd565b60405180910390fd5b565b6000600760009054906101000a900473ffffffffffffffffffffffffffffffffffffffff16905081600760006101000a81548173ffffffffffffffffffffffffffffffffffffffff021916908373ffffffffffffffffffffffffffffffffffffffff1602179055508173ffffffffffffffffffffffffffffffffffffffff168173ffffffffffffffffffffffffffffffffffffffff167f8be0079c531659141344cd1fd0a4f28419497f9722a3daafe3b4186f6b6457e060405160405180910390a35050565b8173ffffffffffffffffffffffffffffffffffffffff168373ffffffffffffffffffffffffffffffffffffffff16036112fd576040517f08c379a00000000000000000000000000000000000000000000000000000000081526004016112f490612849565b60405180910390fd5b80600560008573ffffffffffffffffffffffffffffffffffffffff1673ffffffffffffffffffffffffffffffffffffffff16815260200190815260200160002060008473ffffffffffffffffffffffffffffffffffffffff1673ffffffffffffffffffffffffffffffffffffffff16815260200190815260200160002060006101000a81548160ff0219169083151502179055508173ffffffffffffffffffffffffffffffffffffffff168373ffffffffffffffffffffffffffffffffffffffff167f17307eab39ab6107e8899845ad3d59bd9653f200f220920489ca2b5937696c31836040516113ee9190611b74565b60405180910390a3505050565b611406848484610ee5565b611412848484846117b6565b611451576040517f08c379a0000000000000000000000000000000000000000000000000000000008152600401611448906128db565b60405180910390fd5b50505050565b606060405180602001604052806000815250905090565b606061147982610d44565b6000611483611457565b905060008151116114a357604051806020016040528060008152506114ce565b806114ad8461193d565b6040516020016114be9291906124b4565b6040516020818303038152906040525b915050919050565b6001816000016000828254019250508190555050565b600081600001549050919050565b600073ffffffffffffffffffffffffffffffffffffffff168273ffffffffffffffffffffffffffffffffffffffff1603611569576040517f08c379a000000000000000000000000000000000000000000000000000000000815260040161156090612947565b60405180910390fd5b61157281611740565b156115b2576040517f08c379a00000000000000000000000000000000000000000000000000000000081526004016115a9906129b3565b60405180910390fd5b6115be600083836117ac565b6001600360008473ffffffffffffffffffffffffffffffffffffffff1673ffffffffffffffffffffffffffffffffffffffff168152602001908152602001600020600082825461160e919061275d565b92505081905550816002600083815260200190815260200160002060006101000a81548173ffffffffffffffffffffffffffffffffffffffff021916908373ffffffffffffffffffffffffffffffffffffffff160217905550808273ffffffffffffffffffffffffffffffffffffffff16600073ffffffffffffffffffffffffffffffffffffffff167fddf252ad1be2c89b69c2b068fc378daa952ba7f163c4a11628f55a4df523b3ef60405160405180910390a46116cf600083836117b1565b5050565b6116dc82611740565b61171b576040517f08c379a000000000000000000000000000000000000000000000000000000000815260040161171290612a45565b60405180910390fd5b8060066000848152602001908152602001600020908161173b9190612c11565b505050565b60008073ffffffffffffffffffffffffffffffffffffffff166002600084815260200190815260200160002060009054906101000a900473ffffffffffffffffffffffffffffffffffffffff1673ffffffffffffffffffffffffffffffffffffffff1614159050919050565b505050565b505050565b60006117d78473ffffffffffffffffffffffffffffffffffffffff16611a9d565b15611930578373ffffffffffffffffffffffffffffffffffffffff1663150b7a02611800610d8f565b8786866040518563ffffffff1660e01b81526004016118229493929190612d38565b6020604051808303816000875af192505050801561185e57506040513d601f19601f8201168201806040525081019061185b9190612d99565b60015b6118e0573d806000811461188e576040519150601f19603f3d011682016040523d82523d6000602084013e611893565b606091505b5060008151036118d8576040517f08c379a00000000000000000000000000000000000000000000000000000000081526004016118cf906128db565b60405180910390fd5b805181602001fd5b63150b7a0260e01b7bffffffffffffffffffffffffffffffffffffffffffffffffffffffff1916817bffffffffffffffffffffffffffffffffffffffffffffffffffffffff191614915050611935565b600190505b949350505050565b606060008203611984576040518060400160405280600181526020017f30000000000000000000000000000000000000000000000000000000000000008152509050611a98565b600082905060005b600082146119b657808061199f90612dc6565b915050600a826119af9190612e3d565b915061198c565b60008167ffffffffffffffff8111156119d2576119d1611e8c565b5b6040519080825280601f01601f191660200182016040528015611a045781602001600182028036833780820191505090505b5090505b60008514611a9157600182611a1d9190612729565b9150600a85611a2c9190612e6e565b6030611a38919061275d565b60f81b818381518110611a4e57611a4d612e9f565b5b60200101907effffffffffffffffffffffffffffffffffffffffffffffffffffffffffffff1916908160001a905350600a85611a8a9190612e3d565b9450611a08565b8093505050505b919050565b6000808273ffffffffffffffffffffffffffffffffffffffff163b119050919050565b6000604051905090565b600080fd5b600080fd5b60007fffffffff0000000000000000000000000000000000000000000000000000000082169050919050565b611b0981611ad4565b8114611b1457600080fd5b50565b600081359050611b2681611b00565b92915050565b600060208284031215611b4257611b41611aca565b5b6000611b5084828501611b17565b91505092915050565b60008115159050919050565b611b6e81611b59565b82525050565b6000602082019050611b896000830184611b65565b92915050565b600081519050919050565b600082825260208201905092915050565b60005b83811015611bc9578082015181840152602081019050611bae565b60008484015250505050565b6000601f19601f8301169050919050565b6000611bf182611b8f565b611bfb8185611b9a565b9350611c0b818560208601611bab565b611c1481611bd5565b840191505092915050565b60006020820190508181036000830152611c398184611be6565b905092915050565b6000819050919050565b611c5481611c41565b8114611c5f57600080fd5b50565b600081359050611c7181611c4b565b92915050565b600060208284031215611c8d57611c8c611aca565b5b6000611c9b84828501611c62565b91505092915050565b600073ffffffffffffffffffffffffffffffffffffffff82169050919050565b6000611ccf82611ca4565b9050919050565b611cdf81611cc4565b82525050565b6000602082019050611cfa6000830184611cd6565b92915050565b611d0981611cc4565b8114611d1457600080fd5b50565b600081359050611d2681611d00565b92915050565b60008060408385031215611d4357611d42611aca565b5b6000611d5185828601611d17565b9250506020611d6285828601611c62565b9150509250929050565b600080600060608486031215611d8557611d84611aca565b5b6000611d9386828701611d17565b9350506020611da486828701611d17565b9250506040611db586828701611c62565b9150509250925092565b600060208284031215611dd557611dd4611aca565b5b6000611de384828501611d17565b91505092915050565b611df581611c41565b82525050565b6000602082019050611e106000830184611dec565b92915050565b611e1f81611b59565b8114611e2a57600080fd5b50565b600081359050611e3c81611e16565b92915050565b60008060408385031215611e5957611e58611aca565b5b6000611e6785828601611d17565b9250506020611e7885828601611e2d565b9150509250929050565b600080fd5b600080fd5b7f4e487b7100000000000000000000000000000000000000000000000000000000600052604160045260246000fd5b611ec482611bd5565b810181811067ffffffffffffffff82111715611ee357611ee2611e8c565b5b80604052505050565b6000611ef6611ac0565b9050611f028282611ebb565b919050565b600067ffffffffffffffff821115611f2257611f21611e8c565b5b611f2b82611bd5565b9050602081019050919050565b82818337600083830152505050565b6000611f5a611f5584611f07565b611eec565b905082815260208101848484011115611f7657611f75611e87565b5b611f81848285611f38565b509392505050565b600082601f830112611f9e57611f9d611e82565b5b8135611fae848260208601611f47565b91505092915050565b60008060008060808587031215611fd157611fd0611aca565b5b6000611fdf87828801611d17565b9450506020611ff087828801611d17565b935050604061200187828801611c62565b925050606085013567ffffffffffffffff81111561202257612021611acf565b5b61202e87828801611f89565b91505092959194509250565b600067ffffffffffffffff82111561205557612054611e8c565b5b61205e82611bd5565b9050602081019050919050565b600061207e6120798461203a565b611eec565b90508281526020810184848401111561209a57612099611e87565b5b6120a5848285611f38565b509392505050565b600082601f8301126120c2576120c1611e82565b5b81356120d284826020860161206b565b91505092915050565b6000602082840312156120f1576120f0611aca565b5b600082013567ffffffffffffffff81111561210f5761210e611acf565b5b61211b848285016120ad565b91505092915050565b6000806040838503121561213b5761213a611aca565b5b600061214985828601611d17565b925050602061215a85828601611d17565b9150509250929050565b7f4e487b7100000000000000000000000000000000000000000000000000000000600052602260045260246000fd5b600060028204905060018216806121ab57607f821691505b6020821081036121be576121bd612164565b5b50919050565b7f4552433732313a20617070726f76616c20746f2063757272656e74206f776e6560008201527f7200000000000000000000000000000000000000000000000000000000000000602082015250565b6000612220602183611b9a565b915061222b826121c4565b604082019050919050565b6000602082019050818103600083015261224f81612213565b9050919050565b7f4552433732313a20617070726f76652063616c6c6572206973206e6f7420746f60008201527f6b656e206f776e6572206e6f7220617070726f76656420666f7220616c6c0000602082015250565b60006122b2603e83611b9a565b91506122bd82612256565b604082019050919050565b600060208201905081810360008301526122e1816122a5565b9050919050565b7f4552433732313a2063616c6c6572206973206e6f7420746f6b656e206f776e6560008201527f72206e6f7220617070726f766564000000000000000000000000000000000000602082015250565b6000612344602e83611b9a565b915061234f826122e8565b604082019050919050565b6000602082019050818103600083015261237381612337565b9050919050565b7f4552433732313a20696e76616c696420746f6b656e2049440000000000000000600082015250565b60006123b0601883611b9a565b91506123bb8261237a565b602082019050919050565b600060208201905081810360008301526123df816123a3565b9050919050565b7f4552433732313a2061646472657373207a65726f206973206e6f74206120766160008201527f6c6964206f776e65720000000000000000000000000000000000000000000000602082015250565b6000612442602983611b9a565b915061244d826123e6565b604082019050919050565b6000602082019050818103600083015261247181612435565b9050919050565b600081905092915050565b600061248e82611b8f565b6124988185612478565b93506124a8818560208601611bab565b80840191505092915050565b60006124c08285612483565b91506124cc8284612483565b91508190509392505050565b7f302e352065746820697320726571756972656420746f206d696e742e00000000600082015250565b600061250e601c83611b9a565b9150612519826124d8565b602082019050919050565b6000602082019050818103600083015261253d81612501565b9050919050565b7f4f776e61626c653a206e6577206f776e657220697320746865207a65726f206160008201527f6464726573730000000000000000000000000000000000000000000000000000602082015250565b60006125a0602683611b9a565b91506125ab82612544565b604082019050919050565b600060208201905081810360008301526125cf81612593565b9050919050565b7f4552433732313a207472616e736665722066726f6d20696e636f72726563742060008201527f6f776e6572000000000000000000000000000000000000000000000000000000602082015250565b6000612632602583611b9a565b915061263d826125d6565b604082019050919050565b6000602082019050818103600083015261266181612625565b9050919050565b7f4552433732313a207472616e7366657220746f20746865207a65726f2061646460008201527f7265737300000000000000000000000000000000000000000000000000000000602082015250565b60006126c4602483611b9a565b91506126cf82612668565b604082019050919050565b600060208201905081810360008301526126f3816126b7565b9050919050565b7f4e487b7100000000000000000000000000000000000000000000000000000000600052601160045260246000fd5b600061273482611c41565b915061273f83611c41565b9250828203905081811115612757576127566126fa565b5b92915050565b600061276882611c41565b915061277383611c41565b925082820190508082111561278b5761278a6126fa565b5b92915050565b7f4f776e61626c653a2063616c6c6572206973206e6f7420746865206f776e6572600082015250565b60006127c7602083611b9a565b91506127d282612791565b602082019050919050565b600060208201905081810360008301526127f6816127ba565b9050919050565b7f4552433732313a20617070726f766520746f2063616c6c657200000000000000600082015250565b6000612833601983611b9a565b915061283e826127fd565b602082019050919050565b6000602082019050818103600083015261286281612826565b9050919050565b7f4552433732313a207472616e7366657220746f206e6f6e20455243373231526560008201527f63656976657220696d706c656d656e7465720000000000000000000000000000602082015250565b60006128c5603283611b9a565b91506128d082612869565b604082019050919050565b600060208201905081810360008301526128f4816128b8565b9050919050565b7f4552433732313a206d696e7420746f20746865207a65726f2061646472657373600082015250565b6000612931602083611b9a565b915061293c826128fb565b602082019050919050565b6000602082019050818103600083015261296081612924565b9050919050565b7f4552433732313a20746f6b656e20616c7265616479206d696e74656400000000600082015250565b600061299d601c83611b9a565b91506129a882612967565b602082019050919050565b600060208201905081810360008301526129cc81612990565b9050919050565b7f45524337323155524953746f726167653a2055524920736574206f66206e6f6e60008201527f6578697374656e7420746f6b656e000000000000000000000000000000000000602082015250565b6000612a2f602e83611b9a565b9150612a3a826129d3565b604082019050919050565b60006020820190508181036000830152612a5e81612a22565b9050919050565b60008190508160005260206000209050919050565b60006020601f8301049050919050565b600082821b905092915050565b600060088302612ac77fffffffffffffffffffffffffffffffffffffffffffffffffffffffffffffffff82612a8a565b612ad18683612a8a565b95508019841693508086168417925050509392505050565b6000819050919050565b6000612b0e612b09612b0484611c41565b612ae9565b611c41565b9050919050565b6000819050919050565b612b2883612af3565b612b3c612b3482612b15565b848454612a97565b825550505050565b600090565b612b51612b44565b612b5c818484612b1f565b505050565b5b81811015612b8057612b75600082612b49565b600181019050612b62565b5050565b601f821115612bc557612b9681612a65565b612b9f84612a7a565b81016020851015612bae578190505b612bc2612bba85612a7a565b830182612b61565b50505b505050565b600082821c905092915050565b6000612be860001984600802612bca565b1980831691505092915050565b6000612c018383612bd7565b9150826002028217905092915050565b612c1a82611b8f565b67ffffffffffffffff811115612c3357612c32611e8c565b5b612c3d8254612193565b612c48828285612b84565b600060209050601f831160018114612c7b5760008415612c69578287015190505b612c738582612bf5565b865550612cdb565b601f198416612c8986612a65565b60005b82811015612cb157848901518255600182019150602085019450602081019050612c8c565b86831015612cce5784890151612cca601f891682612bd7565b8355505b6001600288020188555050505b505050505050565b600081519050919050565b600082825260208201905092915050565b6000612d0a82612ce3565b612d148185612cee565b9350612d24818560208601611bab565b612d2d81611bd5565b840191505092915050565b6000608082019050612d4d6000830187611cd6565b612d5a6020830186611cd6565b612d676040830185611dec565b8181036060830152612d798184612cff565b905095945050505050565b600081519050612d9381611b00565b92915050565b600060208284031215612daf57612dae611aca565b5b6000612dbd84828501612d84565b91505092915050565b6000612dd182611c41565b91507fffffffffffffffffffffffffffffffffffffffffffffffffffffffffffffffff8203612e0357612e026126fa565b5b600182019050919050565b7f4e487b7100000000000000000000000000000000000000000000000000000000600052601260045260246000fd5b6000612e4882611c41565b9150612e5383611c41565b925082612e6357612e62612e0e565b5b828204905092915050565b6000612e7982611c41565b9150612e8483611c41565b925082612e9457612e93612e0e565b5b828206905092915050565b7f4e487b7100000000000000000000000000000000000000000000000000000000600052603260045260246000fdfea264697066735822122047cf2187327da00d65fb76560d85538415359bc7a674e98c461fdd1e10ed60d764736f6c63430008110033",
  "linkReferences": {},
  "deployedLinkReferences": {}
}