{
  "_format": "hh-sol-artifact-1",
  "contractName": "ATNFT",
  "sourceName": "contracts/ERC721.sol",
  "abi": [
    {
      "inputs": [],
      "stateMutability": "nonpayable",
      "type": "constructor"
    },
    {
      "anonymous": false,
      "inputs": [
        {
          "indexed": true,
          "internalType": "address",
          "name": "owner",
          "type": "address"
        },
        {
          "indexed": true,
          "internalType": "address",
          "name": "approved",
          "type": "address"
        },
        {
          "indexed": true,
          "internalType": "uint256",
          "name": "tokenId",
          "type": "uint256"
        }
      ],
      "name": "Approval",
      "type": "event"
    },
    {
      "anonymous": false,
      "inputs": [
        {
          "indexed": true,
          "internalType": "address",
          "name": "owner",
          "type": "address"
        },
        {
          "indexed": true,
          "internalType": "address",
          "name": "operator",
          "type": "address"
        },
        {
          "indexed": false,
          "internalType": "bool",
          "name": "approved",
          "type": "bool"
        }
      ],
      "name": "ApprovalForAll",
      "type": "event"
    },
    {
      "anonymous": false,
      "inputs": [
        {
          "indexed": true,
          "internalType": "address",
          "name": "previousOwner",
          "type": "address"
        },
        {
          "indexed": true,
          "internalType": "address",
          "name": "newOwner",
          "type": "address"
        }
      ],
      "name": "OwnershipTransferred",
      "type": "event"
    },
    {
      "anonymous": false,
      "inputs": [
        {
          "indexed": true,
          "internalType": "address",
          "name": "from",
          "type": "address"
        },
        {
          "indexed": true,
          "internalType": "address",
          "name": "to",
          "type": "address"
        },
        {
          "indexed": true,
          "internalType": "uint256",
          "name": "tokenId",
          "type": "uint256"
        }
      ],
      "name": "Transfer",
      "type": "event"
    },
    {
      "inputs": [
        {
          "internalType": "address",
          "name": "to",
          "type": "address"
        },
        {
          "internalType": "uint256",
          "name": "tokenId",
          "type": "uint256"
        }
      ],
      "name": "approve",
      "outputs": [],
      "stateMutability": "nonpayable",
      "type": "function"
    },
    {
      "inputs": [
        {
          "internalType": "address",
          "name": "owner",
          "type": "address"
        }
      ],
      "name": "balanceOf",
      "outputs": [
        {
          "internalType": "uint256",
          "name": "",
          "type": "uint256"
        }
      ],
      "stateMutability": "view",
      "type": "function"
    },
    {
      "inputs": [
        {
          "internalType": "uint256",
          "name": "tokenId",
          "type": "uint256"
        }
      ],
      "name": "getApproved",
      "outputs": [
        {
          "internalType": "address",
          "name": "",
          "type": "address"
        }
      ],
      "stateMutability": "view",
      "type": "function"
    },
    {
      "inputs": [
        {
          "internalType": "address",
          "name": "owner",
          "type": "address"
        },
        {
          "internalType": "address",
          "name": "operator",
          "type": "address"
        }
      ],
      "name": "isApprovedForAll",
      "outputs": [
        {
          "internalType": "bool",
          "name": "",
          "type": "bool"
        }
      ],
      "stateMutability": "view",
      "type": "function"
    },
    {
      "inputs": [
        {
          "internalType": "address",
          "name": "_address",
          "type": "address"
        }
      ],
      "name": "isContract",
      "outputs": [
        {
          "internalType": "bool",
          "name": "isSmartContract",
          "type": "bool"
        }
      ],
      "stateMutability": "view",
      "type": "function"
    },
    {
      "inputs": [
        {
          "internalType": "string",
          "name": "_tokenURI",
          "type": "string"
        }
      ],
      "name": "mint",
      "outputs": [
        {
          "internalType": "uint256",
          "name": "",
          "type": "uint256"
        }
      ],
      "stateMutability": "payable",
      "type": "function"
    },
    {
      "inputs": [],
      "name": "name",
      "outputs": [
        {
          "internalType": "string",
          "name": "",
          "type": "string"
        }
      ],
      "stateMutability": "view",
      "type": "function"
    },
    {
      "inputs": [],
      "name": "owner",
      "outputs": [
        {
          "internalType": "address",
          "name": "",
          "type": "address"
        }
      ],
      "stateMutability": "view",
      "type": "function"
    },
    {
      "inputs": [
        {
          "internalType": "uint256",
          "name": "tokenId",
          "type": "uint256"
        }
      ],
      "name": "ownerOf",
      "outputs": [
        {
          "internalType": "address",
          "name": "",
          "type": "address"
        }
      ],
      "stateMutability": "view",
      "type": "function"
    },
    {
      "inputs": [],
      "name": "renounceOwnership",
      "outputs": [],
      "stateMutability": "nonpayable",
      "type": "function"
    },
    {
      "inputs": [
        {
          "internalType": "address",
          "name": "from",
          "type": "address"
        },
        {
          "internalType": "address",
          "name": "to",
          "type": "address"
        },
        {
          "internalType": "uint256",
          "name": "tokenId",
          "type": "uint256"
        }
      ],
      "name": "safeTransferFrom",
      "outputs": [],
      "stateMutability": "nonpayable",
      "type": "function"
    },
    {
      "inputs": [
        {
          "internalType": "address",
          "name": "from",
          "type": "address"
        },
        {
          "internalType": "address",
          "name": "to",
          "type": "address"
        },
        {
          "internalType": "uint256",
          "name": "tokenId",
          "type": "uint256"
        },
        {
          "internalType": "bytes",
          "name": "data",
          "type": "bytes"
        }
      ],
      "name": "safeTransferFrom",
      "outputs": [],
      "stateMutability": "nonpayable",
      "type": "function"
    },
    {
      "inputs": [
        {
          "internalType": "address",
          "name": "operator",
          "type": "address"
        },
        {
          "internalType": "bool",
          "name": "approved",
          "type": "bool"
        }
      ],
      "name": "setApprovalForAll",
      "outputs": [],
      "stateMutability": "nonpayable",
      "type": "function"
    },
    {
      "inputs": [
        {
          "internalType": "bytes4",
          "name": "interfaceId",
          "type": "bytes4"
        }
      ],
      "name": "supportsInterface",
      "outputs": [
        {
          "internalType": "bool",
          "name": "",
          "type": "bool"
        }
      ],
      "stateMutability": "view",
      "type": "function"
    },
    {
      "inputs": [],
      "name": "symbol",
      "outputs": [
        {
          "internalType": "string",
          "name": "",
          "type": "string"
        }
      ],
      "stateMutability": "view",
      "type": "function"
    },
    {
      "inputs": [
        {
          "internalType": "uint256",
          "name": "tokenId",
          "type": "uint256"
        }
      ],
      "name": "tokenURI",
      "outputs": [
        {
          "internalType": "string",
          "name": "",
          "type": "string"
        }
      ],
      "stateMutability": "view",
      "type": "function"
    },
    {
      "inputs": [
        {
          "internalType": "address",
          "name": "from",
          "type": "address"
        },
        {
          "internalType": "address",
          "name": "to",
          "type": "address"
        },
        {
          "internalType": "uint256",
          "name": "tokenId",
          "type": "uint256"
        }
      ],
      "name": "transferFrom",
      "outputs": [],
      "stateMutability": "nonpayable",
      "type": "function"
    },
    {
      "inputs": [
        {
          "internalType": "address",
          "name": "newOwner",
          "type": "address"
        }
      ],
      "name": "transferOwnership",
      "outputs": [],
      "stateMutability": "nonpayable",
      "type": "function"
    }
  ],
  "bytecode": "0x60806040523480156200001157600080fd5b506040518060400160405280600c81526020017f4179757368205468616b757200000000000000000000000000000000000000008152506040518060400160405280600581526020017f41544e465400000000000000000000000000000000000000000000000000000081525081600090816200008f919062000412565b508060019081620000a1919062000412565b505050620000c4620000b8620000ca60201b60201c565b620000d260201b60201c565b620004f9565b600033905090565b6000600760009054906101000a900473ffffffffffffffffffffffffffffffffffffffff16905081600760006101000a81548173ffffffffffffffffffffffffffffffffffffffff021916908373ffffffffffffffffffffffffffffffffffffffff1602179055508173ffffffffffffffffffffffffffffffffffffffff168173ffffffffffffffffffffffffffffffffffffffff167f8be0079c531659141344cd1fd0a4f28419497f9722a3daafe3b4186f6b6457e060405160405180910390a35050565b600081519050919050565b7f4e487b7100000000000000000000000000000000000000000000000000000000600052604160045260246000fd5b7f4e487b7100000000000000000000000000000000000000000000000000000000600052602260045260246000fd5b600060028204905060018216806200021a57607f821691505b60208210810362000230576200022f620001d2565b5b50919050565b60008190508160005260206000209050919050565b60006020601f8301049050919050565b600082821b905092915050565b6000600883026200029a7fffffffffffffffffffffffffffffffffffffffffffffffffffffffffffffffff826200025b565b620002a686836200025b565b95508019841693508086168417925050509392505050565b6000819050919050565b6000819050919050565b6000620002f3620002ed620002e784620002be565b620002c8565b620002be565b9050919050565b6000819050919050565b6200030f83620002d2565b620003276200031e82620002fa565b84845462000268565b825550505050565b600090565b6200033e6200032f565b6200034b81848462000304565b505050565b5b8181101562000373576200036760008262000334565b60018101905062000351565b5050565b601f821115620003c2576200038c8162000236565b62000397846200024b565b81016020851015620003a7578190505b620003bf620003b6856200024b565b83018262000350565b50505b505050565b600082821c905092915050565b6000620003e760001984600802620003c7565b1980831691505092915050565b6000620004028383620003d4565b9150826002028217905092915050565b6200041d8262000198565b67ffffffffffffffff811115620004395762000438620001a3565b5b62000445825462000201565b6200045282828562000377565b600060209050601f8311600181146200048a576000841562000475578287015190505b620004818582620003f4565b865550620004f1565b601f1984166200049a8662000236565b60005b82811015620004c4578489015182556001820191506020850194506020810190506200049d565b86831015620004e45784890151620004e0601f891682620003d4565b8355505b6001600288020188555050505b505050505050565b61304080620005096000396000f3fe6080604052600436106101095760003560e01c8063715018a611610095578063b88d4fde11610064578063b88d4fde1461037b578063c87b56dd146103a4578063d85d3d27146103e1578063e985e9c514610411578063f2fde38b1461044e57610109565b8063715018a6146102e55780638da5cb5b146102fc57806395d89b4114610327578063a22cb4651461035257610109565b806316279055116100dc57806316279055146101dc57806323b872dd1461021957806342842e0e146102425780636352211e1461026b57806370a08231146102a857610109565b806301ffc9a71461010e57806306fdde031461014b578063081812fc14610176578063095ea7b3146101b3575b600080fd5b34801561011a57600080fd5b5061013560048036038101906101309190611bd6565b610477565b6040516101429190611c1e565b60405180910390f35b34801561015757600080fd5b50610160610559565b60405161016d9190611cc9565b60405180910390f35b34801561018257600080fd5b5061019d60048036038101906101989190611d21565b6105eb565b6040516101aa9190611d8f565b60405180910390f35b3480156101bf57600080fd5b506101da60048036038101906101d59190611dd6565b610631565b005b3480156101e857600080fd5b5061020360048036038101906101fe9190611e16565b610748565b6040516102109190611c1e565b60405180910390f35b34801561022557600080fd5b50610240600480360381019061023b9190611e43565b610761565b005b34801561024e57600080fd5b5061026960048036038101906102649190611e43565b6107c1565b005b34801561027757600080fd5b50610292600480360381019061028d9190611d21565b6107e1565b60405161029f9190611d8f565b60405180910390f35b3480156102b457600080fd5b506102cf60048036038101906102ca9190611e16565b610892565b6040516102dc9190611ea5565b60405180910390f35b3480156102f157600080fd5b506102fa610949565b005b34801561030857600080fd5b5061031161095d565b60405161031e9190611d8f565b60405180910390f35b34801561033357600080fd5b5061033c610987565b6040516103499190611cc9565b60405180910390f35b34801561035e57600080fd5b5061037960048036038101906103749190611eec565b610a19565b005b34801561038757600080fd5b506103a2600480360381019061039d9190612061565b610a2f565b005b3480156103b057600080fd5b506103cb60048036038101906103c69190611d21565b610a91565b6040516103d89190611cc9565b60405180910390f35b6103fb60048036038101906103f69190612185565b610ba3565b6040516104089190611ea5565b60405180910390f35b34801561041d57600080fd5b50610438600480360381019061043391906121ce565b610c6d565b6040516104459190611c1e565b60405180910390f35b34801561045a57600080fd5b5061047560048036038101906104709190611e16565b610d01565b005b60007f80ac58cd000000000000000000000000000000000000000000000000000000007bffffffffffffffffffffffffffffffffffffffffffffffffffffffff1916827bffffffffffffffffffffffffffffffffffffffffffffffffffffffff1916148061054257507f5b5e139f000000000000000000000000000000000000000000000000000000007bffffffffffffffffffffffffffffffffffffffffffffffffffffffff1916827bffffffffffffffffffffffffffffffffffffffffffffffffffffffff1916145b80610552575061055182610d84565b5b9050919050565b6060600080546105689061223d565b80601f01602080910402602001604051908101604052809291908181526020018280546105949061223d565b80156105e15780601f106105b6576101008083540402835291602001916105e1565b820191906000526020600020905b8154815290600101906020018083116105c457829003601f168201915b5050505050905090565b60006105f682610dee565b6004600083815260200190815260200160002060009054906101000a900473ffffffffffffffffffffffffffffffffffffffff169050919050565b600061063c826107e1565b90508073ffffffffffffffffffffffffffffffffffffffff168373ffffffffffffffffffffffffffffffffffffffff16036106ac576040517f08c379a00000000000000000000000000000000000000000000000000000000081526004016106a3906122e0565b60405180910390fd5b8073ffffffffffffffffffffffffffffffffffffffff166106cb610e39565b73ffffffffffffffffffffffffffffffffffffffff1614806106fa57506106f9816106f4610e39565b610c6d565b5b610739576040517f08c379a000000000000000000000000000000000000000000000000000000000815260040161073090612372565b60405180910390fd5b6107438383610e41565b505050565b600080823b905060008163ffffffff1611915050919050565b61077261076c610e39565b82610efa565b6107b1576040517f08c379a00000000000000000000000000000000000000000000000000000000081526004016107a890612404565b60405180910390fd5b6107bc838383610f8f565b505050565b6107dc83838360405180602001604052806000815250610a2f565b505050565b6000806002600084815260200190815260200160002060009054906101000a900473ffffffffffffffffffffffffffffffffffffffff169050600073ffffffffffffffffffffffffffffffffffffffff168173ffffffffffffffffffffffffffffffffffffffff1603610889576040517f08c379a000000000000000000000000000000000000000000000000000000000815260040161088090612470565b60405180910390fd5b80915050919050565b60008073ffffffffffffffffffffffffffffffffffffffff168273ffffffffffffffffffffffffffffffffffffffff1603610902576040517f08c379a00000000000000000000000000000000000000000000000000000000081526004016108f990612502565b60405180910390fd5b600360008373ffffffffffffffffffffffffffffffffffffffff1673ffffffffffffffffffffffffffffffffffffffff168152602001908152602001600020549050919050565b6109516111f5565b61095b6000611273565b565b6000600760009054906101000a900473ffffffffffffffffffffffffffffffffffffffff16905090565b6060600180546109969061223d565b80601f01602080910402602001604051908101604052809291908181526020018280546109c29061223d565b8015610a0f5780601f106109e457610100808354040283529160200191610a0f565b820191906000526020600020905b8154815290600101906020018083116109f257829003601f168201915b5050505050905090565b610a2b610a24610e39565b8383611339565b5050565b610a40610a3a610e39565b83610efa565b610a7f576040517f08c379a0000000000000000000000000000000000000000000000000000000008152600401610a7690612404565b60405180910390fd5b610a8b848484846114a5565b50505050565b6060610a9c82610dee565b6000600660008481526020019081526020016000208054610abc9061223d565b80601f0160208091040260200160405190810160405280929190818152602001828054610ae89061223d565b8015610b355780601f10610b0a57610100808354040283529160200191610b35565b820191906000526020600020905b815481529060010190602001808311610b1857829003601f168201915b505050505090506000610b46611501565b90506000815103610b5b578192505050610b9e565b600082511115610b90578082604051602001610b7892919061255e565b60405160208183030381529060405292505050610b9e565b610b9984611518565b925050505b919050565b6000610bae33610748565b15610bee576040517f08c379a0000000000000000000000000000000000000000000000000000000008152600401610be5906125f4565b60405180910390fd5b6706f05b59d3b200003414610c38576040517f08c379a0000000000000000000000000000000000000000000000000000000008152600401610c2f90612660565b60405180910390fd5b610c426008611580565b6000610c4e6008611596565b9050610c5a33826115a4565b610c64818461177d565b80915050919050565b6000600560008473ffffffffffffffffffffffffffffffffffffffff1673ffffffffffffffffffffffffffffffffffffffff16815260200190815260200160002060008373ffffffffffffffffffffffffffffffffffffffff1673ffffffffffffffffffffffffffffffffffffffff16815260200190815260200160002060009054906101000a900460ff16905092915050565b610d096111f5565b600073ffffffffffffffffffffffffffffffffffffffff168173ffffffffffffffffffffffffffffffffffffffff1603610d78576040517f08c379a0000000000000000000000000000000000000000000000000000000008152600401610d6f906126f2565b60405180910390fd5b610d8181611273565b50565b60007f01ffc9a7000000000000000000000000000000000000000000000000000000007bffffffffffffffffffffffffffffffffffffffffffffffffffffffff1916827bffffffffffffffffffffffffffffffffffffffffffffffffffffffff1916149050919050565b610df7816117ea565b610e36576040517f08c379a0000000000000000000000000000000000000000000000000000000008152600401610e2d90612470565b60405180910390fd5b50565b600033905090565b816004600083815260200190815260200160002060006101000a81548173ffffffffffffffffffffffffffffffffffffffff021916908373ffffffffffffffffffffffffffffffffffffffff160217905550808273ffffffffffffffffffffffffffffffffffffffff16610eb4836107e1565b73ffffffffffffffffffffffffffffffffffffffff167f8c5be1e5ebec7d5bd14f71427d1e84f3dd0314c0f7b2291e5b200ac8c7c3b92560405160405180910390a45050565b600080610f06836107e1565b90508073ffffffffffffffffffffffffffffffffffffffff168473ffffffffffffffffffffffffffffffffffffffff161480610f485750610f478185610c6d565b5b80610f8657508373ffffffffffffffffffffffffffffffffffffffff16610f6e846105eb565b73ffffffffffffffffffffffffffffffffffffffff16145b91505092915050565b8273ffffffffffffffffffffffffffffffffffffffff16610faf826107e1565b73ffffffffffffffffffffffffffffffffffffffff1614611005576040517f08c379a0000000000000000000000000000000000000000000000000000000008152600401610ffc90612784565b60405180910390fd5b600073ffffffffffffffffffffffffffffffffffffffff168273ffffffffffffffffffffffffffffffffffffffff1603611074576040517f08c379a000000000000000000000000000000000000000000000000000000000815260040161106b90612816565b60405180910390fd5b61107f838383611856565b61108a600082610e41565b6001600360008573ffffffffffffffffffffffffffffffffffffffff1673ffffffffffffffffffffffffffffffffffffffff16815260200190815260200160002060008282546110da9190612865565b925050819055506001600360008473ffffffffffffffffffffffffffffffffffffffff1673ffffffffffffffffffffffffffffffffffffffff16815260200190815260200160002060008282546111319190612899565b92505081905550816002600083815260200190815260200160002060006101000a81548173ffffffffffffffffffffffffffffffffffffffff021916908373ffffffffffffffffffffffffffffffffffffffff160217905550808273ffffffffffffffffffffffffffffffffffffffff168473ffffffffffffffffffffffffffffffffffffffff167fddf252ad1be2c89b69c2b068fc378daa952ba7f163c4a11628f55a4df523b3ef60405160405180910390a46111f083838361185b565b505050565b6111fd610e39565b73ffffffffffffffffffffffffffffffffffffffff1661121b61095d565b73ffffffffffffffffffffffffffffffffffffffff1614611271576040517f08c379a000000000000000000000000000000000000000000000000000000000815260040161126890612919565b60405180910390fd5b565b6000600760009054906101000a900473ffffffffffffffffffffffffffffffffffffffff16905081600760006101000a81548173ffffffffffffffffffffffffffffffffffffffff021916908373ffffffffffffffffffffffffffffffffffffffff1602179055508173ffffffffffffffffffffffffffffffffffffffff168173ffffffffffffffffffffffffffffffffffffffff167f8be0079c531659141344cd1fd0a4f28419497f9722a3daafe3b4186f6b6457e060405160405180910390a35050565b8173ffffffffffffffffffffffffffffffffffffffff168373ffffffffffffffffffffffffffffffffffffffff16036113a7576040517f08c379a000000000000000000000000000000000000000000000000000000000815260040161139e90612985565b60405180910390fd5b80600560008573ffffffffffffffffffffffffffffffffffffffff1673ffffffffffffffffffffffffffffffffffffffff16815260200190815260200160002060008473ffffffffffffffffffffffffffffffffffffffff1673ffffffffffffffffffffffffffffffffffffffff16815260200190815260200160002060006101000a81548160ff0219169083151502179055508173ffffffffffffffffffffffffffffffffffffffff168373ffffffffffffffffffffffffffffffffffffffff167f17307eab39ab6107e8899845ad3d59bd9653f200f220920489ca2b5937696c31836040516114989190611c1e565b60405180910390a3505050565b6114b0848484610f8f565b6114bc84848484611860565b6114fb576040517f08c379a00000000000000000000000000000000000000000000000000000000081526004016114f290612a17565b60405180910390fd5b50505050565b606060405180602001604052806000815250905090565b606061152382610dee565b600061152d611501565b9050600081511161154d5760405180602001604052806000815250611578565b80611557846119e7565b60405160200161156892919061255e565b6040516020818303038152906040525b915050919050565b6001816000016000828254019250508190555050565b600081600001549050919050565b600073ffffffffffffffffffffffffffffffffffffffff168273ffffffffffffffffffffffffffffffffffffffff1603611613576040517f08c379a000000000000000000000000000000000000000000000000000000000815260040161160a90612a83565b60405180910390fd5b61161c816117ea565b1561165c576040517f08c379a000000000000000000000000000000000000000000000000000000000815260040161165390612aef565b60405180910390fd5b61166860008383611856565b6001600360008473ffffffffffffffffffffffffffffffffffffffff1673ffffffffffffffffffffffffffffffffffffffff16815260200190815260200160002060008282546116b89190612899565b92505081905550816002600083815260200190815260200160002060006101000a81548173ffffffffffffffffffffffffffffffffffffffff021916908373ffffffffffffffffffffffffffffffffffffffff160217905550808273ffffffffffffffffffffffffffffffffffffffff16600073ffffffffffffffffffffffffffffffffffffffff167fddf252ad1be2c89b69c2b068fc378daa952ba7f163c4a11628f55a4df523b3ef60405160405180910390a46117796000838361185b565b5050565b611786826117ea565b6117c5576040517f08c379a00000000000000000000000000000000000000000000000000000000081526004016117bc90612b81565b60405180910390fd5b806006600084815260200190815260200160002090816117e59190612d4d565b505050565b60008073ffffffffffffffffffffffffffffffffffffffff166002600084815260200190815260200160002060009054906101000a900473ffffffffffffffffffffffffffffffffffffffff1673ffffffffffffffffffffffffffffffffffffffff1614159050919050565b505050565b505050565b60006118818473ffffffffffffffffffffffffffffffffffffffff16611b47565b156119da578373ffffffffffffffffffffffffffffffffffffffff1663150b7a026118aa610e39565b8786866040518563ffffffff1660e01b81526004016118cc9493929190612e74565b6020604051808303816000875af192505050801561190857506040513d601f19601f820116820180604052508101906119059190612ed5565b60015b61198a573d8060008114611938576040519150601f19603f3d011682016040523d82523d6000602084013e61193d565b606091505b506000815103611982576040517f08c379a000000000000000000000000000000000000000000000000000000000815260040161197990612a17565b60405180910390fd5b805181602001fd5b63150b7a0260e01b7bffffffffffffffffffffffffffffffffffffffffffffffffffffffff1916817bffffffffffffffffffffffffffffffffffffffffffffffffffffffff1916149150506119df565b600190505b949350505050565b606060008203611a2e576040518060400160405280600181526020017f30000000000000000000000000000000000000000000000000000000000000008152509050611b42565b600082905060005b60008214611a60578080611a4990612f02565b915050600a82611a599190612f79565b9150611a36565b60008167ffffffffffffffff811115611a7c57611a7b611f36565b5b6040519080825280601f01601f191660200182016040528015611aae5781602001600182028036833780820191505090505b5090505b60008514611b3b57600182611ac79190612865565b9150600a85611ad69190612faa565b6030611ae29190612899565b60f81b818381518110611af857611af7612fdb565b5b60200101907effffffffffffffffffffffffffffffffffffffffffffffffffffffffffffff1916908160001a905350600a85611b349190612f79565b9450611ab2565b8093505050505b919050565b6000808273ffffffffffffffffffffffffffffffffffffffff163b119050919050565b6000604051905090565b600080fd5b600080fd5b60007fffffffff0000000000000000000000000000000000000000000000000000000082169050919050565b611bb381611b7e565b8114611bbe57600080fd5b50565b600081359050611bd081611baa565b92915050565b600060208284031215611bec57611beb611b74565b5b6000611bfa84828501611bc1565b91505092915050565b60008115159050919050565b611c1881611c03565b82525050565b6000602082019050611c336000830184611c0f565b92915050565b600081519050919050565b600082825260208201905092915050565b60005b83811015611c73578082015181840152602081019050611c58565b60008484015250505050565b6000601f19601f8301169050919050565b6000611c9b82611c39565b611ca58185611c44565b9350611cb5818560208601611c55565b611cbe81611c7f565b840191505092915050565b60006020820190508181036000830152611ce38184611c90565b905092915050565b6000819050919050565b611cfe81611ceb565b8114611d0957600080fd5b50565b600081359050611d1b81611cf5565b92915050565b600060208284031215611d3757611d36611b74565b5b6000611d4584828501611d0c565b91505092915050565b600073ffffffffffffffffffffffffffffffffffffffff82169050919050565b6000611d7982611d4e565b9050919050565b611d8981611d6e565b82525050565b6000602082019050611da46000830184611d80565b92915050565b611db381611d6e565b8114611dbe57600080fd5b50565b600081359050611dd081611daa565b92915050565b60008060408385031215611ded57611dec611b74565b5b6000611dfb85828601611dc1565b9250506020611e0c85828601611d0c565b9150509250929050565b600060208284031215611e2c57611e2b611b74565b5b6000611e3a84828501611dc1565b91505092915050565b600080600060608486031215611e5c57611e5b611b74565b5b6000611e6a86828701611dc1565b9350506020611e7b86828701611dc1565b9250506040611e8c86828701611d0c565b9150509250925092565b611e9f81611ceb565b82525050565b6000602082019050611eba6000830184611e96565b92915050565b611ec981611c03565b8114611ed457600080fd5b50565b600081359050611ee681611ec0565b92915050565b60008060408385031215611f0357611f02611b74565b5b6000611f1185828601611dc1565b9250506020611f2285828601611ed7565b9150509250929050565b600080fd5b600080fd5b7f4e487b7100000000000000000000000000000000000000000000000000000000600052604160045260246000fd5b611f6e82611c7f565b810181811067ffffffffffffffff82111715611f8d57611f8c611f36565b5b80604052505050565b6000611fa0611b6a565b9050611fac8282611f65565b919050565b600067ffffffffffffffff821115611fcc57611fcb611f36565b5b611fd582611c7f565b9050602081019050919050565b82818337600083830152505050565b6000612004611fff84611fb1565b611f96565b9050828152602081018484840111156120205761201f611f31565b5b61202b848285611fe2565b509392505050565b600082601f83011261204857612047611f2c565b5b8135612058848260208601611ff1565b91505092915050565b6000806000806080858703121561207b5761207a611b74565b5b600061208987828801611dc1565b945050602061209a87828801611dc1565b93505060406120ab87828801611d0c565b925050606085013567ffffffffffffffff8111156120cc576120cb611b79565b5b6120d887828801612033565b91505092959194509250565b600067ffffffffffffffff8211156120ff576120fe611f36565b5b61210882611c7f565b9050602081019050919050565b6000612128612123846120e4565b611f96565b90508281526020810184848401111561214457612143611f31565b5b61214f848285611fe2565b509392505050565b600082601f83011261216c5761216b611f2c565b5b813561217c848260208601612115565b91505092915050565b60006020828403121561219b5761219a611b74565b5b600082013567ffffffffffffffff8111156121b9576121b8611b79565b5b6121c584828501612157565b91505092915050565b600080604083850312156121e5576121e4611b74565b5b60006121f385828601611dc1565b925050602061220485828601611dc1565b9150509250929050565b7f4e487b7100000000000000000000000000000000000000000000000000000000600052602260045260246000fd5b6000600282049050600182168061225557607f821691505b6020821081036122685761226761220e565b5b50919050565b7f4552433732313a20617070726f76616c20746f2063757272656e74206f776e6560008201527f7200000000000000000000000000000000000000000000000000000000000000602082015250565b60006122ca602183611c44565b91506122d58261226e565b604082019050919050565b600060208201905081810360008301526122f9816122bd565b9050919050565b7f4552433732313a20617070726f76652063616c6c6572206973206e6f7420746f60008201527f6b656e206f776e6572206e6f7220617070726f76656420666f7220616c6c0000602082015250565b600061235c603e83611c44565b915061236782612300565b604082019050919050565b6000602082019050818103600083015261238b8161234f565b9050919050565b7f4552433732313a2063616c6c6572206973206e6f7420746f6b656e206f776e6560008201527f72206e6f7220617070726f766564000000000000000000000000000000000000602082015250565b60006123ee602e83611c44565b91506123f982612392565b604082019050919050565b6000602082019050818103600083015261241d816123e1565b9050919050565b7f4552433732313a20696e76616c696420746f6b656e2049440000000000000000600082015250565b600061245a601883611c44565b915061246582612424565b602082019050919050565b600060208201905081810360008301526124898161244d565b9050919050565b7f4552433732313a2061646472657373207a65726f206973206e6f74206120766160008201527f6c6964206f776e65720000000000000000000000000000000000000000000000602082015250565b60006124ec602983611c44565b91506124f782612490565b604082019050919050565b6000602082019050818103600083015261251b816124df565b9050919050565b600081905092915050565b600061253882611c39565b6125428185612522565b9350612552818560208601611c55565b80840191505092915050565b600061256a828561252d565b9150612576828461252d565b91508190509392505050565b7f6d73672e73656e646572206973206e6f7420612065787465726e616c6c79206f60008201527f776e65642077616c6c6574000000000000000000000000000000000000000000602082015250565b60006125de602b83611c44565b91506125e982612582565b604082019050919050565b6000602082019050818103600083015261260d816125d1565b9050919050565b7f302e352065746820697320726571756972656420746f206d696e742e00000000600082015250565b600061264a601c83611c44565b915061265582612614565b602082019050919050565b600060208201905081810360008301526126798161263d565b9050919050565b7f4f776e61626c653a206e6577206f776e657220697320746865207a65726f206160008201527f6464726573730000000000000000000000000000000000000000000000000000602082015250565b60006126dc602683611c44565b91506126e782612680565b604082019050919050565b6000602082019050818103600083015261270b816126cf565b9050919050565b7f4552433732313a207472616e736665722066726f6d20696e636f72726563742060008201527f6f776e6572000000000000000000000000000000000000000000000000000000602082015250565b600061276e602583611c44565b915061277982612712565b604082019050919050565b6000602082019050818103600083015261279d81612761565b9050919050565b7f4552433732313a207472616e7366657220746f20746865207a65726f2061646460008201527f7265737300000000000000000000000000000000000000000000000000000000602082015250565b6000612800602483611c44565b915061280b826127a4565b604082019050919050565b6000602082019050818103600083015261282f816127f3565b9050919050565b7f4e487b7100000000000000000000000000000000000000000000000000000000600052601160045260246000fd5b600061287082611ceb565b915061287b83611ceb565b925082820390508181111561289357612892612836565b5b92915050565b60006128a482611ceb565b91506128af83611ceb565b92508282019050808211156128c7576128c6612836565b5b92915050565b7f4f776e61626c653a2063616c6c6572206973206e6f7420746865206f776e6572600082015250565b6000612903602083611c44565b915061290e826128cd565b602082019050919050565b60006020820190508181036000830152612932816128f6565b9050919050565b7f4552433732313a20617070726f766520746f2063616c6c657200000000000000600082015250565b600061296f601983611c44565b915061297a82612939565b602082019050919050565b6000602082019050818103600083015261299e81612962565b9050919050565b7f4552433732313a207472616e7366657220746f206e6f6e20455243373231526560008201527f63656976657220696d706c656d656e7465720000000000000000000000000000602082015250565b6000612a01603283611c44565b9150612a0c826129a5565b604082019050919050565b60006020820190508181036000830152612a30816129f4565b9050919050565b7f4552433732313a206d696e7420746f20746865207a65726f2061646472657373600082015250565b6000612a6d602083611c44565b9150612a7882612a37565b602082019050919050565b60006020820190508181036000830152612a9c81612a60565b9050919050565b7f4552433732313a20746f6b656e20616c7265616479206d696e74656400000000600082015250565b6000612ad9601c83611c44565b9150612ae482612aa3565b602082019050919050565b60006020820190508181036000830152612b0881612acc565b9050919050565b7f45524337323155524953746f726167653a2055524920736574206f66206e6f6e60008201527f6578697374656e7420746f6b656e000000000000000000000000000000000000602082015250565b6000612b6b602e83611c44565b9150612b7682612b0f565b604082019050919050565b60006020820190508181036000830152612b9a81612b5e565b9050919050565b60008190508160005260206000209050919050565b60006020601f8301049050919050565b600082821b905092915050565b600060088302612c037fffffffffffffffffffffffffffffffffffffffffffffffffffffffffffffffff82612bc6565b612c0d8683612bc6565b95508019841693508086168417925050509392505050565b6000819050919050565b6000612c4a612c45612c4084611ceb565b612c25565b611ceb565b9050919050565b6000819050919050565b612c6483612c2f565b612c78612c7082612c51565b848454612bd3565b825550505050565b600090565b612c8d612c80565b612c98818484612c5b565b505050565b5b81811015612cbc57612cb1600082612c85565b600181019050612c9e565b5050565b601f821115612d0157612cd281612ba1565b612cdb84612bb6565b81016020851015612cea578190505b612cfe612cf685612bb6565b830182612c9d565b50505b505050565b600082821c905092915050565b6000612d2460001984600802612d06565b1980831691505092915050565b6000612d3d8383612d13565b9150826002028217905092915050565b612d5682611c39565b67ffffffffffffffff811115612d6f57612d6e611f36565b5b612d79825461223d565b612d84828285612cc0565b600060209050601f831160018114612db75760008415612da5578287015190505b612daf8582612d31565b865550612e17565b601f198416612dc586612ba1565b60005b82811015612ded57848901518255600182019150602085019450602081019050612dc8565b86831015612e0a5784890151612e06601f891682612d13565b8355505b6001600288020188555050505b505050505050565b600081519050919050565b600082825260208201905092915050565b6000612e4682612e1f565b612e508185612e2a565b9350612e60818560208601611c55565b612e6981611c7f565b840191505092915050565b6000608082019050612e896000830187611d80565b612e966020830186611d80565b612ea36040830185611e96565b8181036060830152612eb58184612e3b565b905095945050505050565b600081519050612ecf81611baa565b92915050565b600060208284031215612eeb57612eea611b74565b5b6000612ef984828501612ec0565b91505092915050565b6000612f0d82611ceb565b91507fffffffffffffffffffffffffffffffffffffffffffffffffffffffffffffffff8203612f3f57612f3e612836565b5b600182019050919050565b7f4e487b7100000000000000000000000000000000000000000000000000000000600052601260045260246000fd5b6000612f8482611ceb565b9150612f8f83611ceb565b925082612f9f57612f9e612f4a565b5b828204905092915050565b6000612fb582611ceb565b9150612fc083611ceb565b925082612fd057612fcf612f4a565b5b828206905092915050565b7f4e487b7100000000000000000000000000000000000000000000000000000000600052603260045260246000fdfea26469706673582212204157e65f9a1dad8dac5d41497bf82b1c47b6bb2204ffbf533d47bcb93e944f5864736f6c63430008110033",
  "linkReferences": {},
  "deployedLinkReferences": {}
}