{
  "_format": "hh-sol-artifact-1",
  "contractName": "MyNFT",
  "sourceName": "contracts/MyNFT.sol",
  "abi": [
    {
      "inputs": [],
      "stateMutability": "nonpayable",
      "type": "constructor"
    },
    {
      "anonymous": false,
      "inputs": [
        {
          "indexed": true,
          "internalType": "address",
          "name": "owner",
          "type": "address"
        },
        {
          "indexed": true,
          "internalType": "address",
          "name": "approved",
          "type": "address"
        },
        {
          "indexed": true,
          "internalType": "uint256",
          "name": "tokenId",
          "type": "uint256"
        }
      ],
      "name": "Approval",
      "type": "event"
    },
    {
      "anonymous": false,
      "inputs": [
        {
          "indexed": true,
          "internalType": "address",
          "name": "owner",
          "type": "address"
        },
        {
          "indexed": true,
          "internalType": "address",
          "name": "operator",
          "type": "address"
        },
        {
          "indexed": false,
          "internalType": "bool",
          "name": "approved",
          "type": "bool"
        }
      ],
      "name": "ApprovalForAll",
      "type": "event"
    },
    {
      "anonymous": false,
      "inputs": [
        {
          "indexed": true,
          "internalType": "address",
          "name": "previousOwner",
          "type": "address"
        },
        {
          "indexed": true,
          "internalType": "address",
          "name": "newOwner",
          "type": "address"
        }
      ],
      "name": "OwnershipTransferred",
      "type": "event"
    },
    {
      "anonymous": false,
      "inputs": [
        {
          "indexed": true,
          "internalType": "address",
          "name": "from",
          "type": "address"
        },
        {
          "indexed": true,
          "internalType": "address",
          "name": "to",
          "type": "address"
        },
        {
          "indexed": true,
          "internalType": "uint256",
          "name": "tokenId",
          "type": "uint256"
        }
      ],
      "name": "Transfer",
      "type": "event"
    },
    {
      "inputs": [],
      "name": "MAX_SUPPLY",
      "outputs": [
        {
          "internalType": "uint256",
          "name": "",
          "type": "uint256"
        }
      ],
      "stateMutability": "view",
      "type": "function"
    },
    {
      "inputs": [
        {
          "internalType": "address",
          "name": "to",
          "type": "address"
        },
        {
          "internalType": "uint256",
          "name": "tokenId",
          "type": "uint256"
        }
      ],
      "name": "approve",
      "outputs": [],
      "stateMutability": "nonpayable",
      "type": "function"
    },
    {
      "inputs": [
        {
          "internalType": "address",
          "name": "owner",
          "type": "address"
        }
      ],
      "name": "balanceOf",
      "outputs": [
        {
          "internalType": "uint256",
          "name": "",
          "type": "uint256"
        }
      ],
      "stateMutability": "view",
      "type": "function"
    },
    {
      "inputs": [
        {
          "internalType": "uint256",
          "name": "tokenId",
          "type": "uint256"
        }
      ],
      "name": "getApproved",
      "outputs": [
        {
          "internalType": "address",
          "name": "",
          "type": "address"
        }
      ],
      "stateMutability": "view",
      "type": "function"
    },
    {
      "inputs": [
        {
          "internalType": "address",
          "name": "owner",
          "type": "address"
        },
        {
          "internalType": "address",
          "name": "operator",
          "type": "address"
        }
      ],
      "name": "isApprovedForAll",
      "outputs": [
        {
          "internalType": "bool",
          "name": "",
          "type": "bool"
        }
      ],
      "stateMutability": "view",
      "type": "function"
    },
    {
      "inputs": [],
      "name": "mintRate",
      "outputs": [
        {
          "internalType": "uint256",
          "name": "",
          "type": "uint256"
        }
      ],
      "stateMutability": "view",
      "type": "function"
    },
    {
      "inputs": [],
      "name": "name",
      "outputs": [
        {
          "internalType": "string",
          "name": "",
          "type": "string"
        }
      ],
      "stateMutability": "view",
      "type": "function"
    },
    {
      "inputs": [],
      "name": "owner",
      "outputs": [
        {
          "internalType": "address",
          "name": "",
          "type": "address"
        }
      ],
      "stateMutability": "view",
      "type": "function"
    },
    {
      "inputs": [
        {
          "internalType": "uint256",
          "name": "tokenId",
          "type": "uint256"
        }
      ],
      "name": "ownerOf",
      "outputs": [
        {
          "internalType": "address",
          "name": "",
          "type": "address"
        }
      ],
      "stateMutability": "view",
      "type": "function"
    },
    {
      "inputs": [],
      "name": "renounceOwnership",
      "outputs": [],
      "stateMutability": "nonpayable",
      "type": "function"
    },
    {
      "inputs": [
        {
          "internalType": "address",
          "name": "to",
          "type": "address"
        }
      ],
      "name": "safeMint",
      "outputs": [],
      "stateMutability": "payable",
      "type": "function"
    },
    {
      "inputs": [
        {
          "internalType": "address",
          "name": "from",
          "type": "address"
        },
        {
          "internalType": "address",
          "name": "to",
          "type": "address"
        },
        {
          "internalType": "uint256",
          "name": "tokenId",
          "type": "uint256"
        }
      ],
      "name": "safeTransferFrom",
      "outputs": [],
      "stateMutability": "nonpayable",
      "type": "function"
    },
    {
      "inputs": [
        {
          "internalType": "address",
          "name": "from",
          "type": "address"
        },
        {
          "internalType": "address",
          "name": "to",
          "type": "address"
        },
        {
          "internalType": "uint256",
          "name": "tokenId",
          "type": "uint256"
        },
        {
          "internalType": "bytes",
          "name": "_data",
          "type": "bytes"
        }
      ],
      "name": "safeTransferFrom",
      "outputs": [],
      "stateMutability": "nonpayable",
      "type": "function"
    },
    {
      "inputs": [
        {
          "internalType": "address",
          "name": "operator",
          "type": "address"
        },
        {
          "internalType": "bool",
          "name": "approved",
          "type": "bool"
        }
      ],
      "name": "setApprovalForAll",
      "outputs": [],
      "stateMutability": "nonpayable",
      "type": "function"
    },
    {
      "inputs": [
        {
          "internalType": "bytes4",
          "name": "interfaceId",
          "type": "bytes4"
        }
      ],
      "name": "supportsInterface",
      "outputs": [
        {
          "internalType": "bool",
          "name": "",
          "type": "bool"
        }
      ],
      "stateMutability": "view",
      "type": "function"
    },
    {
      "inputs": [],
      "name": "symbol",
      "outputs": [
        {
          "internalType": "string",
          "name": "",
          "type": "string"
        }
      ],
      "stateMutability": "view",
      "type": "function"
    },
    {
      "inputs": [
        {
          "internalType": "uint256",
          "name": "index",
          "type": "uint256"
        }
      ],
      "name": "tokenByIndex",
      "outputs": [
        {
          "internalType": "uint256",
          "name": "",
          "type": "uint256"
        }
      ],
      "stateMutability": "view",
      "type": "function"
    },
    {
      "inputs": [
        {
          "internalType": "address",
          "name": "owner",
          "type": "address"
        },
        {
          "internalType": "uint256",
          "name": "index",
          "type": "uint256"
        }
      ],
      "name": "tokenOfOwnerByIndex",
      "outputs": [
        {
          "internalType": "uint256",
          "name": "",
          "type": "uint256"
        }
      ],
      "stateMutability": "view",
      "type": "function"
    },
    {
      "inputs": [
        {
          "internalType": "uint256",
          "name": "tokenId",
          "type": "uint256"
        }
      ],
      "name": "tokenURI",
      "outputs": [
        {
          "internalType": "string",
          "name": "",
          "type": "string"
        }
      ],
      "stateMutability": "view",
      "type": "function"
    },
    {
      "inputs": [],
      "name": "totalSupply",
      "outputs": [
        {
          "internalType": "uint256",
          "name": "",
          "type": "uint256"
        }
      ],
      "stateMutability": "view",
      "type": "function"
    },
    {
      "inputs": [
        {
          "internalType": "address",
          "name": "from",
          "type": "address"
        },
        {
          "internalType": "address",
          "name": "to",
          "type": "address"
        },
        {
          "internalType": "uint256",
          "name": "tokenId",
          "type": "uint256"
        }
      ],
      "name": "transferFrom",
      "outputs": [],
      "stateMutability": "nonpayable",
      "type": "function"
    },
    {
      "inputs": [
        {
          "internalType": "address",
          "name": "newOwner",
          "type": "address"
        }
      ],
      "name": "transferOwnership",
      "outputs": [],
      "stateMutability": "nonpayable",
      "type": "function"
    },
    {
      "inputs": [],
      "name": "withdraw",
      "outputs": [],
      "stateMutability": "nonpayable",
      "type": "function"
    }
  ],
  "bytecode": "0x6080604052662386f26fc10000600c556001600d553480156200002157600080fd5b506040518060400160405280600581526020017f4d794e46540000000000000000000000000000000000000000000000000000008152506040518060400160405280600481526020017f4d4e4654000000000000000000000000000000000000000000000000000000008152508160009080519060200190620000a6929190620001b6565b508060019080519060200190620000bf929190620001b6565b505050620000e2620000d6620000e860201b60201c565b620000f060201b60201c565b620002cb565b600033905090565b6000600a60009054906101000a900473ffffffffffffffffffffffffffffffffffffffff16905081600a60006101000a81548173ffffffffffffffffffffffffffffffffffffffff021916908373ffffffffffffffffffffffffffffffffffffffff1602179055508173ffffffffffffffffffffffffffffffffffffffff168173ffffffffffffffffffffffffffffffffffffffff167f8be0079c531659141344cd1fd0a4f28419497f9722a3daafe3b4186f6b6457e060405160405180910390a35050565b828054620001c49062000266565b90600052602060002090601f016020900481019282620001e8576000855562000234565b82601f106200020357805160ff191683800117855562000234565b8280016001018555821562000234579182015b828111156200023357825182559160200191906001019062000216565b5b50905062000243919062000247565b5090565b5b808211156200026257600081600090555060010162000248565b5090565b600060028204905060018216806200027f57607f821691505b602082108114156200029657620002956200029c565b5b50919050565b7f4e487b7100000000000000000000000000000000000000000000000000000000600052602260045260246000fd5b61379b80620002db6000396000f3fe6080604052600436106101405760003560e01c80634f6ccce7116100b6578063a22cb4651161006f578063a22cb4651461044f578063b88d4fde14610478578063c87b56dd146104a1578063ca0dcf16146104de578063e985e9c514610509578063f2fde38b1461054657610140565b80634f6ccce71461032b5780636352211e1461036857806370a08231146103a5578063715018a6146103e25780638da5cb5b146103f957806395d89b411461042457610140565b806323b872dd1161010857806323b872dd1461023e5780632f745c591461026757806332cb6b0c146102a45780633ccfd60b146102cf57806340d097c3146102e657806342842e0e1461030257610140565b806301ffc9a71461014557806306fdde0314610182578063081812fc146101ad578063095ea7b3146101ea57806318160ddd14610213575b600080fd5b34801561015157600080fd5b5061016c600480360381019061016791906126a3565b61056f565b6040516101799190612b35565b60405180910390f35b34801561018e57600080fd5b50610197610581565b6040516101a49190612b50565b60405180910390f35b3480156101b957600080fd5b506101d460048036038101906101cf91906126f5565b610613565b6040516101e19190612ace565b60405180910390f35b3480156101f657600080fd5b50610211600480360381019061020c9190612667565b610698565b005b34801561021f57600080fd5b506102286107b0565b6040516102359190612df2565b60405180910390f35b34801561024a57600080fd5b5061026560048036038101906102609190612561565b6107bd565b005b34801561027357600080fd5b5061028e60048036038101906102899190612667565b61081d565b60405161029b9190612df2565b60405180910390f35b3480156102b057600080fd5b506102b96108c2565b6040516102c69190612df2565b60405180910390f35b3480156102db57600080fd5b506102e46108c8565b005b61030060048036038101906102fb91906124fc565b6109d7565b005b34801561030e57600080fd5b5061032960048036038101906103249190612561565b610a8d565b005b34801561033757600080fd5b50610352600480360381019061034d91906126f5565b610aad565b60405161035f9190612df2565b60405180910390f35b34801561037457600080fd5b5061038f600480360381019061038a91906126f5565b610b44565b60405161039c9190612ace565b60405180910390f35b3480156103b157600080fd5b506103cc60048036038101906103c791906124fc565b610bf6565b6040516103d99190612df2565b60405180910390f35b3480156103ee57600080fd5b506103f7610cae565b005b34801561040557600080fd5b5061040e610d36565b60405161041b9190612ace565b60405180910390f35b34801561043057600080fd5b50610439610d60565b6040516104469190612b50565b60405180910390f35b34801561045b57600080fd5b506104766004803603810190610471919061262b565b610df2565b005b34801561048457600080fd5b5061049f600480360381019061049a91906125b0565b610e08565b005b3480156104ad57600080fd5b506104c860048036038101906104c391906126f5565b610e6a565b6040516104d59190612b50565b60405180910390f35b3480156104ea57600080fd5b506104f3610f11565b6040516105009190612df2565b60405180910390f35b34801561051557600080fd5b50610530600480360381019061052b9190612525565b610f17565b60405161053d9190612b35565b60405180910390f35b34801561055257600080fd5b5061056d600480360381019061056891906124fc565b610fab565b005b600061057a826110a3565b9050919050565b60606000805461059090613017565b80601f01602080910402602001604051908101604052809291908181526020018280546105bc90613017565b80156106095780601f106105de57610100808354040283529160200191610609565b820191906000526020600020905b8154815290600101906020018083116105ec57829003601f168201915b5050505050905090565b600061061e8261111d565b61065d576040517f08c379a000000000000000000000000000000000000000000000000000000000815260040161065490612d12565b60405180910390fd5b6004600083815260200190815260200160002060009054906101000a900473ffffffffffffffffffffffffffffffffffffffff169050919050565b60006106a382610b44565b90508073ffffffffffffffffffffffffffffffffffffffff168373ffffffffffffffffffffffffffffffffffffffff161415610714576040517f08c379a000000000000000000000000000000000000000000000000000000000815260040161070b90612d72565b60405180910390fd5b8073ffffffffffffffffffffffffffffffffffffffff16610733611189565b73ffffffffffffffffffffffffffffffffffffffff16148061076257506107618161075c611189565b610f17565b5b6107a1576040517f08c379a000000000000000000000000000000000000000000000000000000000815260040161079890612c72565b60405180910390fd5b6107ab8383611191565b505050565b6000600880549050905090565b6107ce6107c8611189565b8261124a565b61080d576040517f08c379a000000000000000000000000000000000000000000000000000000000815260040161080490612d92565b60405180910390fd5b610818838383611328565b505050565b600061082883610bf6565b8210610869576040517f08c379a000000000000000000000000000000000000000000000000000000000815260040161086090612b72565b60405180910390fd5b600660008473ffffffffffffffffffffffffffffffffffffffff1673ffffffffffffffffffffffffffffffffffffffff168152602001908152602001600020600083815260200190815260200160002054905092915050565b600d5481565b6108d0611189565b73ffffffffffffffffffffffffffffffffffffffff166108ee610d36565b73ffffffffffffffffffffffffffffffffffffffff1614610944576040517f08c379a000000000000000000000000000000000000000000000000000000000815260040161093b90612d32565b60405180910390fd5b60004711610987576040517f08c379a000000000000000000000000000000000000000000000000000000000815260040161097e90612cf2565b60405180910390fd5b61098f610d36565b73ffffffffffffffffffffffffffffffffffffffff166108fc479081150290604051600060405180830381858888f193505050501580156109d4573d6000803e3d6000fd5b50565b600d546109e26107b0565b10610a22576040517f08c379a0000000000000000000000000000000000000000000000000000000008152600401610a1990612dd2565b60405180910390fd5b600c54341015610a67576040517f08c379a0000000000000000000000000000000000000000000000000000000008152600401610a5e90612dd2565b60405180910390fd5b6000610a73600b61158f565b9050610a7f600b61159d565b610a8982826115b3565b5050565b610aa883838360405180602001604052806000815250610e08565b505050565b6000610ab76107b0565b8210610af8576040517f08c379a0000000000000000000000000000000000000000000000000000000008152600401610aef90612db2565b60405180910390fd5b60088281548110610b32577f4e487b7100000000000000000000000000000000000000000000000000000000600052603260045260246000fd5b90600052602060002001549050919050565b6000806002600084815260200190815260200160002060009054906101000a900473ffffffffffffffffffffffffffffffffffffffff169050600073ffffffffffffffffffffffffffffffffffffffff168173ffffffffffffffffffffffffffffffffffffffff161415610bed576040517f08c379a0000000000000000000000000000000000000000000000000000000008152600401610be490612cb2565b60405180910390fd5b80915050919050565b60008073ffffffffffffffffffffffffffffffffffffffff168273ffffffffffffffffffffffffffffffffffffffff161415610c67576040517f08c379a0000000000000000000000000000000000000000000000000000000008152600401610c5e90612c92565b60405180910390fd5b600360008373ffffffffffffffffffffffffffffffffffffffff1673ffffffffffffffffffffffffffffffffffffffff168152602001908152602001600020549050919050565b610cb6611189565b73ffffffffffffffffffffffffffffffffffffffff16610cd4610d36565b73ffffffffffffffffffffffffffffffffffffffff1614610d2a576040517f08c379a0000000000000000000000000000000000000000000000000000000008152600401610d2190612d32565b60405180910390fd5b610d3460006115d1565b565b6000600a60009054906101000a900473ffffffffffffffffffffffffffffffffffffffff16905090565b606060018054610d6f90613017565b80601f0160208091040260200160405190810160405280929190818152602001828054610d9b90613017565b8015610de85780601f10610dbd57610100808354040283529160200191610de8565b820191906000526020600020905b815481529060010190602001808311610dcb57829003601f168201915b5050505050905090565b610e04610dfd611189565b8383611697565b5050565b610e19610e13611189565b8361124a565b610e58576040517f08c379a0000000000000000000000000000000000000000000000000000000008152600401610e4f90612d92565b60405180910390fd5b610e6484848484611804565b50505050565b6060610e758261111d565b610eb4576040517f08c379a0000000000000000000000000000000000000000000000000000000008152600401610eab90612d52565b60405180910390fd5b6000610ebe611860565b90506000815111610ede5760405180602001604052806000815250610f09565b80610ee88461189d565b604051602001610ef9929190612aaa565b6040516020818303038152906040525b915050919050565b600c5481565b6000600560008473ffffffffffffffffffffffffffffffffffffffff1673ffffffffffffffffffffffffffffffffffffffff16815260200190815260200160002060008373ffffffffffffffffffffffffffffffffffffffff1673ffffffffffffffffffffffffffffffffffffffff16815260200190815260200160002060009054906101000a900460ff16905092915050565b610fb3611189565b73ffffffffffffffffffffffffffffffffffffffff16610fd1610d36565b73ffffffffffffffffffffffffffffffffffffffff1614611027576040517f08c379a000000000000000000000000000000000000000000000000000000000815260040161101e90612d32565b60405180910390fd5b600073ffffffffffffffffffffffffffffffffffffffff168173ffffffffffffffffffffffffffffffffffffffff161415611097576040517f08c379a000000000000000000000000000000000000000000000000000000000815260040161108e90612bb2565b60405180910390fd5b6110a0816115d1565b50565b60007f780e9d63000000000000000000000000000000000000000000000000000000007bffffffffffffffffffffffffffffffffffffffffffffffffffffffff1916827bffffffffffffffffffffffffffffffffffffffffffffffffffffffff19161480611116575061111582611a4a565b5b9050919050565b60008073ffffffffffffffffffffffffffffffffffffffff166002600084815260200190815260200160002060009054906101000a900473ffffffffffffffffffffffffffffffffffffffff1673ffffffffffffffffffffffffffffffffffffffff1614159050919050565b600033905090565b816004600083815260200190815260200160002060006101000a81548173ffffffffffffffffffffffffffffffffffffffff021916908373ffffffffffffffffffffffffffffffffffffffff160217905550808273ffffffffffffffffffffffffffffffffffffffff1661120483610b44565b73ffffffffffffffffffffffffffffffffffffffff167f8c5be1e5ebec7d5bd14f71427d1e84f3dd0314c0f7b2291e5b200ac8c7c3b92560405160405180910390a45050565b60006112558261111d565b611294576040517f08c379a000000000000000000000000000000000000000000000000000000000815260040161128b90612c52565b60405180910390fd5b600061129f83610b44565b90508073ffffffffffffffffffffffffffffffffffffffff168473ffffffffffffffffffffffffffffffffffffffff16148061130e57508373ffffffffffffffffffffffffffffffffffffffff166112f684610613565b73ffffffffffffffffffffffffffffffffffffffff16145b8061131f575061131e8185610f17565b5b91505092915050565b8273ffffffffffffffffffffffffffffffffffffffff1661134882610b44565b73ffffffffffffffffffffffffffffffffffffffff161461139e576040517f08c379a000000000000000000000000000000000000000000000000000000000815260040161139590612bd2565b60405180910390fd5b600073ffffffffffffffffffffffffffffffffffffffff168273ffffffffffffffffffffffffffffffffffffffff16141561140e576040517f08c379a000000000000000000000000000000000000000000000000000000000815260040161140590612c12565b60405180910390fd5b611419838383611b2c565b611424600082611191565b6001600360008573ffffffffffffffffffffffffffffffffffffffff1673ffffffffffffffffffffffffffffffffffffffff16815260200190815260200160002060008282546114749190612f2d565b925050819055506001600360008473ffffffffffffffffffffffffffffffffffffffff1673ffffffffffffffffffffffffffffffffffffffff16815260200190815260200160002060008282546114cb9190612ea6565b92505081905550816002600083815260200190815260200160002060006101000a81548173ffffffffffffffffffffffffffffffffffffffff021916908373ffffffffffffffffffffffffffffffffffffffff160217905550808273ffffffffffffffffffffffffffffffffffffffff168473ffffffffffffffffffffffffffffffffffffffff167fddf252ad1be2c89b69c2b068fc378daa952ba7f163c4a11628f55a4df523b3ef60405160405180910390a461158a838383611b3c565b505050565b600081600001549050919050565b6001816000016000828254019250508190555050565b6115cd828260405180602001604052806000815250611b41565b5050565b6000600a60009054906101000a900473ffffffffffffffffffffffffffffffffffffffff16905081600a60006101000a81548173ffffffffffffffffffffffffffffffffffffffff021916908373ffffffffffffffffffffffffffffffffffffffff1602179055508173ffffffffffffffffffffffffffffffffffffffff168173ffffffffffffffffffffffffffffffffffffffff167f8be0079c531659141344cd1fd0a4f28419497f9722a3daafe3b4186f6b6457e060405160405180910390a35050565b8173ffffffffffffffffffffffffffffffffffffffff168373ffffffffffffffffffffffffffffffffffffffff161415611706576040517f08c379a00000000000000000000000000000000000000000000000000000000081526004016116fd90612c32565b60405180910390fd5b80600560008573ffffffffffffffffffffffffffffffffffffffff1673ffffffffffffffffffffffffffffffffffffffff16815260200190815260200160002060008473ffffffffffffffffffffffffffffffffffffffff1673ffffffffffffffffffffffffffffffffffffffff16815260200190815260200160002060006101000a81548160ff0219169083151502179055508173ffffffffffffffffffffffffffffffffffffffff168373ffffffffffffffffffffffffffffffffffffffff167f17307eab39ab6107e8899845ad3d59bd9653f200f220920489ca2b5937696c31836040516117f79190612b35565b60405180910390a3505050565b61180f848484611328565b61181b84848484611b9c565b61185a576040517f08c379a000000000000000000000000000000000000000000000000000000000815260040161185190612b92565b60405180910390fd5b50505050565b60606040518060400160405280601d81526020017f68747470733a2f2f6170692e6d796e66742e636f6d2f746f6b656e732f000000815250905090565b606060008214156118e5576040518060400160405280600181526020017f30000000000000000000000000000000000000000000000000000000000000008152509050611a45565b600082905060005b600082146119175780806119009061307a565b915050600a826119109190612efc565b91506118ed565b60008167ffffffffffffffff811115611959577f4e487b7100000000000000000000000000000000000000000000000000000000600052604160045260246000fd5b6040519080825280601f01601f19166020018201604052801561198b5781602001600182028036833780820191505090505b5090505b60008514611a3e576001826119a49190612f2d565b9150600a856119b391906130c3565b60306119bf9190612ea6565b60f81b8183815181106119fb577f4e487b7100000000000000000000000000000000000000000000000000000000600052603260045260246000fd5b60200101907effffffffffffffffffffffffffffffffffffffffffffffffffffffffffffff1916908160001a905350600a85611a379190612efc565b945061198f565b8093505050505b919050565b60007f80ac58cd000000000000000000000000000000000000000000000000000000007bffffffffffffffffffffffffffffffffffffffffffffffffffffffff1916827bffffffffffffffffffffffffffffffffffffffffffffffffffffffff19161480611b1557507f5b5e139f000000000000000000000000000000000000000000000000000000007bffffffffffffffffffffffffffffffffffffffffffffffffffffffff1916827bffffffffffffffffffffffffffffffffffffffffffffffffffffffff1916145b80611b255750611b2482611d33565b5b9050919050565b611b37838383611d9d565b505050565b505050565b611b4b8383611eb1565b611b586000848484611b9c565b611b97576040517f08c379a0000000000000000000000000000000000000000000000000000000008152600401611b8e90612b92565b60405180910390fd5b505050565b6000611bbd8473ffffffffffffffffffffffffffffffffffffffff1661208b565b15611d26578373ffffffffffffffffffffffffffffffffffffffff1663150b7a02611be6611189565b8786866040518563ffffffff1660e01b8152600401611c089493929190612ae9565b602060405180830381600087803b158015611c2257600080fd5b505af1925050508015611c5357506040513d601f19601f82011682018060405250810190611c5091906126cc565b60015b611cd6573d8060008114611c83576040519150601f19603f3d011682016040523d82523d6000602084013e611c88565b606091505b50600081511415611cce576040517f08c379a0000000000000000000000000000000000000000000000000000000008152600401611cc590612b92565b60405180910390fd5b805181602001fd5b63150b7a0260e01b7bffffffffffffffffffffffffffffffffffffffffffffffffffffffff1916817bffffffffffffffffffffffffffffffffffffffffffffffffffffffff191614915050611d2b565b600190505b949350505050565b60007f01ffc9a7000000000000000000000000000000000000000000000000000000007bffffffffffffffffffffffffffffffffffffffffffffffffffffffff1916827bffffffffffffffffffffffffffffffffffffffffffffffffffffffff1916149050919050565b611da88383836120ae565b600073ffffffffffffffffffffffffffffffffffffffff168373ffffffffffffffffffffffffffffffffffffffff161415611deb57611de6816120b3565b611e2a565b8173ffffffffffffffffffffffffffffffffffffffff168373ffffffffffffffffffffffffffffffffffffffff1614611e2957611e2883826120fc565b5b5b600073ffffffffffffffffffffffffffffffffffffffff168273ffffffffffffffffffffffffffffffffffffffff161415611e6d57611e6881612269565b611eac565b8273ffffffffffffffffffffffffffffffffffffffff168273ffffffffffffffffffffffffffffffffffffffff1614611eab57611eaa82826123ac565b5b5b505050565b600073ffffffffffffffffffffffffffffffffffffffff168273ffffffffffffffffffffffffffffffffffffffff161415611f21576040517f08c379a0000000000000000000000000000000000000000000000000000000008152600401611f1890612cd2565b60405180910390fd5b611f2a8161111d565b15611f6a576040517f08c379a0000000000000000000000000000000000000000000000000000000008152600401611f6190612bf2565b60405180910390fd5b611f7660008383611b2c565b6001600360008473ffffffffffffffffffffffffffffffffffffffff1673ffffffffffffffffffffffffffffffffffffffff1681526020019081526020016000206000828254611fc69190612ea6565b92505081905550816002600083815260200190815260200160002060006101000a81548173ffffffffffffffffffffffffffffffffffffffff021916908373ffffffffffffffffffffffffffffffffffffffff160217905550808273ffffffffffffffffffffffffffffffffffffffff16600073ffffffffffffffffffffffffffffffffffffffff167fddf252ad1be2c89b69c2b068fc378daa952ba7f163c4a11628f55a4df523b3ef60405160405180910390a461208760008383611b3c565b5050565b6000808273ffffffffffffffffffffffffffffffffffffffff163b119050919050565b505050565b6008805490506009600083815260200190815260200160002081905550600881908060018154018082558091505060019003906000526020600020016000909190919091505550565b6000600161210984610bf6565b6121139190612f2d565b90506000600760008481526020019081526020016000205490508181146121f8576000600660008673ffffffffffffffffffffffffffffffffffffffff1673ffffffffffffffffffffffffffffffffffffffff168152602001908152602001600020600084815260200190815260200160002054905080600660008773ffffffffffffffffffffffffffffffffffffffff1673ffffffffffffffffffffffffffffffffffffffff168152602001908152602001600020600084815260200190815260200160002081905550816007600083815260200190815260200160002081905550505b6007600084815260200190815260200160002060009055600660008573ffffffffffffffffffffffffffffffffffffffff1673ffffffffffffffffffffffffffffffffffffffff16815260200190815260200160002060008381526020019081526020016000206000905550505050565b6000600160088054905061227d9190612f2d565b90506000600960008481526020019081526020016000205490506000600883815481106122d3577f4e487b7100000000000000000000000000000000000000000000000000000000600052603260045260246000fd5b90600052602060002001549050806008838154811061231b577f4e487b7100000000000000000000000000000000000000000000000000000000600052603260045260246000fd5b906000526020600020018190555081600960008381526020019081526020016000208190555060096000858152602001908152602001600020600090556008805480612390577f4e487b7100000000000000000000000000000000000000000000000000000000600052603160045260246000fd5b6001900381819060005260206000200160009055905550505050565b60006123b783610bf6565b905081600660008573ffffffffffffffffffffffffffffffffffffffff1673ffffffffffffffffffffffffffffffffffffffff168152602001908152602001600020600083815260200190815260200160002081905550806007600084815260200190815260200160002081905550505050565b600061243e61243984612e32565b612e0d565b90508281526020810184848401111561245657600080fd5b612461848285612fd5565b509392505050565b60008135905061247881613709565b92915050565b60008135905061248d81613720565b92915050565b6000813590506124a281613737565b92915050565b6000815190506124b781613737565b92915050565b600082601f8301126124ce57600080fd5b81356124de84826020860161242b565b91505092915050565b6000813590506124f68161374e565b92915050565b60006020828403121561250e57600080fd5b600061251c84828501612469565b91505092915050565b6000806040838503121561253857600080fd5b600061254685828601612469565b925050602061255785828601612469565b9150509250929050565b60008060006060848603121561257657600080fd5b600061258486828701612469565b935050602061259586828701612469565b92505060406125a6868287016124e7565b9150509250925092565b600080600080608085870312156125c657600080fd5b60006125d487828801612469565b94505060206125e587828801612469565b93505060406125f6878288016124e7565b925050606085013567ffffffffffffffff81111561261357600080fd5b61261f878288016124bd565b91505092959194509250565b6000806040838503121561263e57600080fd5b600061264c85828601612469565b925050602061265d8582860161247e565b9150509250929050565b6000806040838503121561267a57600080fd5b600061268885828601612469565b9250506020612699858286016124e7565b9150509250929050565b6000602082840312156126b557600080fd5b60006126c384828501612493565b91505092915050565b6000602082840312156126de57600080fd5b60006126ec848285016124a8565b91505092915050565b60006020828403121561270757600080fd5b6000612715848285016124e7565b91505092915050565b61272781612f61565b82525050565b61273681612f73565b82525050565b600061274782612e63565b6127518185612e79565b9350612761818560208601612fe4565b61276a816131b0565b840191505092915050565b600061278082612e6e565b61278a8185612e8a565b935061279a818560208601612fe4565b6127a3816131b0565b840191505092915050565b60006127b982612e6e565b6127c38185612e9b565b93506127d3818560208601612fe4565b80840191505092915050565b60006127ec602b83612e8a565b91506127f7826131c1565b604082019050919050565b600061280f603283612e8a565b915061281a82613210565b604082019050919050565b6000612832602683612e8a565b915061283d8261325f565b604082019050919050565b6000612855602583612e8a565b9150612860826132ae565b604082019050919050565b6000612878601c83612e8a565b9150612883826132fd565b602082019050919050565b600061289b602483612e8a565b91506128a682613326565b604082019050919050565b60006128be601983612e8a565b91506128c982613375565b602082019050919050565b60006128e1602c83612e8a565b91506128ec8261339e565b604082019050919050565b6000612904603883612e8a565b915061290f826133ed565b604082019050919050565b6000612927602a83612e8a565b91506129328261343c565b604082019050919050565b600061294a602983612e8a565b91506129558261348b565b604082019050919050565b600061296d602083612e8a565b9150612978826134da565b602082019050919050565b6000612990600c83612e8a565b915061299b82613503565b602082019050919050565b60006129b3602c83612e8a565b91506129be8261352c565b604082019050919050565b60006129d6602083612e8a565b91506129e18261357b565b602082019050919050565b60006129f9602f83612e8a565b9150612a04826135a4565b604082019050919050565b6000612a1c602183612e8a565b9150612a27826135f3565b604082019050919050565b6000612a3f603183612e8a565b9150612a4a82613642565b604082019050919050565b6000612a62602c83612e8a565b9150612a6d82613691565b604082019050919050565b6000612a85601583612e8a565b9150612a90826136e0565b602082019050919050565b612aa481612fcb565b82525050565b6000612ab682856127ae565b9150612ac282846127ae565b91508190509392505050565b6000602082019050612ae3600083018461271e565b92915050565b6000608082019050612afe600083018761271e565b612b0b602083018661271e565b612b186040830185612a9b565b8181036060830152612b2a818461273c565b905095945050505050565b6000602082019050612b4a600083018461272d565b92915050565b60006020820190508181036000830152612b6a8184612775565b905092915050565b60006020820190508181036000830152612b8b816127df565b9050919050565b60006020820190508181036000830152612bab81612802565b9050919050565b60006020820190508181036000830152612bcb81612825565b9050919050565b60006020820190508181036000830152612beb81612848565b9050919050565b60006020820190508181036000830152612c0b8161286b565b9050919050565b60006020820190508181036000830152612c2b8161288e565b9050919050565b60006020820190508181036000830152612c4b816128b1565b9050919050565b60006020820190508181036000830152612c6b816128d4565b9050919050565b60006020820190508181036000830152612c8b816128f7565b9050919050565b60006020820190508181036000830152612cab8161291a565b9050919050565b60006020820190508181036000830152612ccb8161293d565b9050919050565b60006020820190508181036000830152612ceb81612960565b9050919050565b60006020820190508181036000830152612d0b81612983565b9050919050565b60006020820190508181036000830152612d2b816129a6565b9050919050565b60006020820190508181036000830152612d4b816129c9565b9050919050565b60006020820190508181036000830152612d6b816129ec565b9050919050565b60006020820190508181036000830152612d8b81612a0f565b9050919050565b60006020820190508181036000830152612dab81612a32565b9050919050565b60006020820190508181036000830152612dcb81612a55565b9050919050565b60006020820190508181036000830152612deb81612a78565b9050919050565b6000602082019050612e076000830184612a9b565b92915050565b6000612e17612e28565b9050612e238282613049565b919050565b6000604051905090565b600067ffffffffffffffff821115612e4d57612e4c613181565b5b612e56826131b0565b9050602081019050919050565b600081519050919050565b600081519050919050565b600082825260208201905092915050565b600082825260208201905092915050565b600081905092915050565b6000612eb182612fcb565b9150612ebc83612fcb565b9250827fffffffffffffffffffffffffffffffffffffffffffffffffffffffffffffffff03821115612ef157612ef06130f4565b5b828201905092915050565b6000612f0782612fcb565b9150612f1283612fcb565b925082612f2257612f21613123565b5b828204905092915050565b6000612f3882612fcb565b9150612f4383612fcb565b925082821015612f5657612f556130f4565b5b828203905092915050565b6000612f6c82612fab565b9050919050565b60008115159050919050565b60007fffffffff0000000000000000000000000000000000000000000000000000000082169050919050565b600073ffffffffffffffffffffffffffffffffffffffff82169050919050565b6000819050919050565b82818337600083830152505050565b60005b83811015613002578082015181840152602081019050612fe7565b83811115613011576000848401525b50505050565b6000600282049050600182168061302f57607f821691505b6020821081141561304357613042613152565b5b50919050565b613052826131b0565b810181811067ffffffffffffffff8211171561307157613070613181565b5b80604052505050565b600061308582612fcb565b91507fffffffffffffffffffffffffffffffffffffffffffffffffffffffffffffffff8214156130b8576130b76130f4565b5b600182019050919050565b60006130ce82612fcb565b91506130d983612fcb565b9250826130e9576130e8613123565b5b828206905092915050565b7f4e487b7100000000000000000000000000000000000000000000000000000000600052601160045260246000fd5b7f4e487b7100000000000000000000000000000000000000000000000000000000600052601260045260246000fd5b7f4e487b7100000000000000000000000000000000000000000000000000000000600052602260045260246000fd5b7f4e487b7100000000000000000000000000000000000000000000000000000000600052604160045260246000fd5b6000601f19601f8301169050919050565b7f455243373231456e756d657261626c653a206f776e657220696e646578206f7560008201527f74206f6620626f756e6473000000000000000000000000000000000000000000602082015250565b7f4552433732313a207472616e7366657220746f206e6f6e20455243373231526560008201527f63656976657220696d706c656d656e7465720000000000000000000000000000602082015250565b7f4f776e61626c653a206e6577206f776e657220697320746865207a65726f206160008201527f6464726573730000000000000000000000000000000000000000000000000000602082015250565b7f4552433732313a207472616e736665722066726f6d20696e636f72726563742060008201527f6f776e6572000000000000000000000000000000000000000000000000000000602082015250565b7f4552433732313a20746f6b656e20616c7265616479206d696e74656400000000600082015250565b7f4552433732313a207472616e7366657220746f20746865207a65726f2061646460008201527f7265737300000000000000000000000000000000000000000000000000000000602082015250565b7f4552433732313a20617070726f766520746f2063616c6c657200000000000000600082015250565b7f4552433732313a206f70657261746f7220717565727920666f72206e6f6e657860008201527f697374656e7420746f6b656e0000000000000000000000000000000000000000602082015250565b7f4552433732313a20617070726f76652063616c6c6572206973206e6f74206f7760008201527f6e6572206e6f7220617070726f76656420666f7220616c6c0000000000000000602082015250565b7f4552433732313a2062616c616e636520717565727920666f7220746865207a6560008201527f726f206164647265737300000000000000000000000000000000000000000000602082015250565b7f4552433732313a206f776e657220717565727920666f72206e6f6e657869737460008201527f656e7420746f6b656e0000000000000000000000000000000000000000000000602082015250565b7f4552433732313a206d696e7420746f20746865207a65726f2061646472657373600082015250565b7f42616c616e636520697320300000000000000000000000000000000000000000600082015250565b7f4552433732313a20617070726f76656420717565727920666f72206e6f6e657860008201527f697374656e7420746f6b656e0000000000000000000000000000000000000000602082015250565b7f4f776e61626c653a2063616c6c6572206973206e6f7420746865206f776e6572600082015250565b7f4552433732314d657461646174613a2055524920717565727920666f72206e6f60008201527f6e6578697374656e7420746f6b656e0000000000000000000000000000000000602082015250565b7f4552433732313a20617070726f76616c20746f2063757272656e74206f776e6560008201527f7200000000000000000000000000000000000000000000000000000000000000602082015250565b7f4552433732313a207472616e736665722063616c6c6572206973206e6f74206f60008201527f776e6572206e6f7220617070726f766564000000000000000000000000000000602082015250565b7f455243373231456e756d657261626c653a20676c6f62616c20696e646578206f60008201527f7574206f6620626f756e64730000000000000000000000000000000000000000602082015250565b7f4e6f7420656e6f7567682065746865722073656e740000000000000000000000600082015250565b61371281612f61565b811461371d57600080fd5b50565b61372981612f73565b811461373457600080fd5b50565b61374081612f7f565b811461374b57600080fd5b50565b61375781612fcb565b811461376257600080fd5b5056fea2646970667358221220040c083176431d90ea2b3d7b2198fe49b8dcf87870af0a0fd04a871edc51c6a164736f6c63430008010033",
  "linkReferences": {},
  "deployedLinkReferences": {}
}